:020000040000FA
:10100000808F0020CD970000E3D0030021980000DE
:1010100021980000219800002198000000000000A5
:1010200000000000000000000000000075930000B8
:101030002198000000000000E1920000418E0000B5
:101040008D97000087ED03008D9700008D970000BD
:101050008D9700008D9700008D9700008D97000000
:101060004FED03008D9700008D9700006DED03009C
:101070008D9700008D9700008D9700008D970000E0
:101080008D9700008D9700008D9700008D970000D0
:101090008D9700008D9700008D9700008D970000C0
:1010A0008D9700008D9700008D9700008D970000B0
:1010B0008D9700008D9700008D9700008D970000A0
:1010C0008D9700008D9700008D9700008D97000090
:1010D0008D9700008D9700008D9700008D97000080
:1010E0008D9700008D9700008D9700008D97000070
:1010F0008D9700008D9700008D9700008D97000060
:101100007BB972B90029BEBF00204FF0004106E054
:1011100008BF00281CBF6FF000414FF0FF3000F007
:10112000B9B9ADF1080C6DE904CE002909DB002B3B
:101130001ADB00F04DF8DDF804E0DDE9022304B02D
:101140007047404261EB4101002B1BDB00F040F88F
:10115000DDF804E0DDE9022304B0404261EB410127
:10116000524263EB43037047524263EB430300F088
:101170002FF8DDF804E0DDE9022304B0404261EB22
:1011800041017047524263EB430300F021F8DDF860
:1011900004E0DDE9022304B0524263EB43037047ED
:1011A00053B94AB9002908BF00281CBF4FF0FF31CE
:1011B0004FF0FF3000F06EB9ADF1080C6DE904CED0
:1011C00000F006F8DDF804E0DDE9022304B0704722
:1011D0002DE9F047089D04468C46002B40F08380A3
:1011E0008A42174647D9B2FA82F242B1C2F12000D0
:1011F00024FA00F09140974040EA010C94404FEAF5
:101200001748230CBCFBF8F61FFA87FE08FB16C133
:1012100043EA014306FB0EF1994209D9FB1806F196
:10122000FF3080F01981994240F21681023E3B4422
:101230005B1AA4B2B3FBF8F008FB103344EA034492
:1012400000FB0EFEA64509D93C1900F1FF3380F0E2
:101250000581A64540F2028102383C4440EA06403E
:10126000A4EB0E0400261DB1D4400023C5E90043C1
:101270003146BDE8F08702B9FFDEB2FA82F2002AF9
:1012800050D1CB1B4FEA174E1FFA87F80126B3FB4C
:10129000FEFC210C0EFB1C3341EA034108FB0CF35E
:1012A0008B4207D979180CF1FF3002D28B4200F241
:1012B000E9808446C91AA3B2B1FBFEF00EFB1011FF
:1012C00043EA014408FB00F8A04507D93C1900F1A6
:1012D000FF3302D2A04500F2D9801846A4EB0804DF
:1012E00040EA0C40BFE78B4209D9002D00F0B180E5
:1012F0000026C5E9000130463146BDE8F087B3FA63
:1013000083F6002E4AD18B4202D3824200F2B8808B
:10131000841A61EB030101208C46002DA8D0C5E999
:10132000004CA5E7C2F1200320FA03F6974001FA2A
:1013300002F04FEA174ED9403043030CB1FBFEF6E2
:101340001FFA87F80EFB161143EA014306FB08F16A
:10135000994204FA02F409D9FB1806F1FF3C80F027
:101360008D80994240F28A80023E3B445B1A81B2F2
:10137000B3FBFEF00EFB103341EA034100FB08F320
:101380008B4207D9791800F1FF3C73D28B4271D997
:1013900002383944CB1A40EA064678E7C6F1200CF9
:1013A00003FA06F422FA0CF31C4320FA0CF701FAB4
:1013B00006F34FEA144E21FA0CF11F433B0CB1FB2C
:1013C000FEF91FFA84F80EFB191143EA014109FBEB
:1013D00008FA8A4502FA06F200FA06F308D96118FB
:1013E00009F1FF3048D28A4546D9A9F102092144C2
:1013F000A1EB0A01BFB2B1FBFEF00EFB101147EAF0
:10140000014700FB08F8B84507D9E71900F1FF319B
:101410002ED2B8452CD90238274440EA0940A7EB20
:101420000807A0FB02894F45C64649461AD317D084
:101430005DB1B3EB0E0267EB010707FA0CFCF2405B
:101440004CEA0202F740C5E9002700263146BDE814
:10145000F0872E4628460BE70646E9E61846FDE6E5
:101460004345E5D2B8EB020E69EB04010138DFE732
:101470000846D2E760468DE78146B9E7664675E7DC
:1014800030464AE7ACF1020C394413E702383C44D9
:1014900024E700BF704700BFF8B515460A4A1C464E
:1014A00056682EB101B02A46B446BDE8F040604708
:1014B00000208DF80000684603F0ECF99DF800006C
:1014C000281A20700020F8BD00040020002819D040
:1014D00003781349134A13B1012B0ED011E003799D
:1014E000012B00D06BB943790BB1012B09D1836873
:1014F000643B8B4205D2C0680EE00379012B02D019
:101500000BB10020704743790BB1012BF9D1C368AF
:10151000643B8B42F5D280689042F2D8012070473C
:101520003D860100FF1FA10710B5054C206810B1D2
:10153000804700202060BDE8104001F019BC000089
:10154000080400202DE9F0410E46050004D000F00B
:1015500045F8074600240AE06FF01500BDE8F08169
:10156000204600F041F8807838B1641CE4B2BC42F7
:10157000F6D300BF6FF00B00F0E72746FF2CF9D041
:10158000204600F031F8044603F027FB277121467E
:10159000074801F0C5FBE070202805D00120A560B8
:1015A000A07037700020D9E76FF02200D6E7000066
:1015B0003B49000010B5820702D06FF00D0010BD4E
:1015C000054A1170506028B101EBC1018A00002169
:1015D00003F039FD002010BD0C0400200148007804
:1015E000704700000C04002005490A78904201D39E
:1015F00000207047496800EBC00001EB8000704795
:101600000C04002070B50546202A27D019481A4C32
:1016100000EB831C0CEB420004EB8303202922D057
:101620000CEB410140784C784870204601460CEBA9
:101630004100914205704078F8D193F82220202A89
:101640001ABF0CEB4202547083F8214020220CEBAD
:10165000410C8CF8012083F8221070BD40F29121DA
:10166000702002F04FFD93F82040407883F820006E
:10167000DBE7000000110020801100202DE9FF4F62
:101680000C46498987B001F5E1611546814200F2B7
:10169000DA8005AA02A901F013FD02980A9F2844E6
:1016A00020F07F400490A948A94E00EB87000390EA
:1016B00090F820502020E9460DF104088DF8000034
:1016C00006F5407A202D18BF0AEB871B26D000BFF5
:1016D00005EB450006EBC0002168C268891A0902C3
:1016E000CA1701EB12610830091217D4618971B170
:1016F000418961B900F0B2FD01F0C6FC2168081A09
:101700000002C11700EB11600012332806DB0BEB5F
:10171000450089F800504578202DD9D199F800006E
:1017200088F80000A146202D1CBF8A4800EB871BCB
:1017300000F0088105EB450106EBC10AD9F8041059
:10174000DAF808204846511A0902CA1701EB12615B
:101750000AF10807091215D47989002900F0F280EE
:101760004189002940F0EE8000F078FD01F08CFC0A
:101770003968081A0002C11700EB11600012332803
:1017800080F2E08088F800509AF8141099F80C0064
:10179000814206D90BEB45004578202DCAD100F0D7
:1017A000D1B89DF8040000EB400006EBC005688A44
:1017B000EF6800283FD16089E8B3A86803F0A1FA78
:1017C000698A2A7C1144491C634A4318904204D90F
:1017D00040F21661702002F095FC6048814204DD01
:1017E00040F21761702002F08DFC5D48814204DAFE
:1017F0004FF4C361702002F085FC5A489842DCBF68
:1018000003F5F703A3F1F85305DD002BBCBFA3F5E7
:10181000F70303F1F853184601F036FC20F07F403F
:10182000391A0902CA1701EB126109123329BCBF28
:10183000333020F07F470498381A0002C11700EBBC
:101840001160001203D40BB00020BDE8F08FD4E982
:101850000010401A384427F07F4120F07F40C4E94F
:1018600000100398DDF828806F4690F82050202063
:101870000DF1040A8DF80000202D1CBF354800EB47
:10188000881924D005EB450006EBC0002268C1682A
:10189000511A0902CA1701EB12610830091216D455
:1018A000618971B1418961B900F0D8FC01F0ECFBAC
:1018B0002168081A0002C11700EB116000123328DA
:1018C00005DB09EB45003D704578202DDAD13878ED
:1018D0008AF800002746202D1CBF1E4800EB881BFD
:1018E00030D005EB450106EBC1097968D9F808202D
:1018F0003846511A0902CA1701EB126109F10808AA
:10190000091212D4B8F80A10E1B14189D1B900F036
:10191000A5FC01F0B9FBD8F80010081A0002C117A5
:1019200000EB1160001233280CDA8AF8005099F8A5
:101930001400397B88427FF634AF0BEB45004578C5
:10194000202DCED10BB00120BDE8F08F80110020FA
:10195000000E002000110020FF7F841E0020A10740
:1019600000E05EF80080841E2DE9F05F04463C48EC
:101970000E4600EB86003B4F90F820502020984602
:101980009246107007F54079202D18BF09EB861B91
:1019900028D000BF05EB450007EBC00000F10801AF
:1019A000C0682268101A0002C21700EB1260001211
:1019B00018D4608978B1488968B9084600F04EFCAF
:1019C00001F062FB2168081A0002C11700EB1160E8
:1019D0000012332806DB0BEB45008AF800504578EF
:1019E000202DD7D19AF8000088F80000202D18BFCC
:1019F00009EB861A30D005EB450107EBC109616898
:101A0000D9F808202046511A0902CA1701EB1261C1
:101A100009F10806091210D47189E9B14189D9B9CF
:101A200000F01CFC01F030FB3168081A0002C117FD
:101A300000EB1160001233280EDA88F8005099F894
:101A40001400217B884202D80020BDE8F09F0AEBF9
:101A500045004578202DCED10120BDE8F09F000043
:101A600080110020000E00202DE9F74F4FF00008F4
:101A700098B016460D46C34601F07EFD0446012D82
:101A800018BF022D05D040F693114FF0700002F000
:101A900039FBFD4901200860FC4989680860002085
:101AA0000C90401E0E90FA4906EB460001EBC00375
:101AB00008330FAF0FCB87E80F000FA800F0CEFB65
:101AC0000D90F348BDF84690B0F89C03ADF84C007B
:101AD000B9F1000F14BF4FF0010A4FF0000A0F9840
:101AE0001490BAF1000F09D0EA4890F82C0028B9F8
:101AF00002F0A4FA002808BF012700D00027E6481A
:101B00000022159200781646012818BF032840D1FC
:101B1000E148B0F80280A8EB09001590C84538D913
:101B20000D996FEA0803DFF874E3C8180DF10C0C87
:101B300017AA714504D940F21661702002F0E2FA4A
:101B4000D7498B4204DD40F21761702002F0DAFAC7
:101B5000D4498B4204DA4FF4C361702002F0D2FA08
:101B6000D1498142DCBF00F5F700A0F1F85005DD56
:101B70000028BCBFA0F5F70000F1F850614601F065
:101B80009FFA03980F9920F07F400390081A20F0E5
:101B90007F42002F18BF322604D19DF84C00002848
:101BA00018BF0226B4F1807F08D00F98001B0002F6
:101BB000C11700EB11600012012802DA0420189905
:101BC0000BE047B1B34890F82D0020B19DF84C00D0
:101BD000061C18BF022621460120B9F1000F02D0D1
:101BE000159B1E2B02DA9DF84C3013B14FF0010B00
:101BF000401E8319A8489DF84DE0007815900F9875
:101C0000801A20F07F4CACEB01000002C61700EBFD
:101C100016600012984218DB002A18BFCDF83CC0AD
:101C20000F9E0597002701F0A1FB301A0002C11793
:101C300000EB116000123E283FDA012D20D0701E0B
:101C4000059920F07F4019B32DE082B1BEF1000F5D
:101C500004BF159803280AD027B99DF84C00002826
:101C600018BF9B1E00228DF84C209046C7E707BB8B
:101C70009DF84C00E8B100208DF84C009B1EBEE79B
:101C8000B4F1807F20D140F60C11702002F03AFAB6
:101C9000B4F1807F07D0211A0902CA1701EB126143
:101CA0000912042903DD044601F066FB0CE000295B
:101CB0000ADD1BB00020BDE8F08F701E20F07F44CD
:101CC000204601F059FB5746B4F1807F28D00F9889
:101CD000DDF840C0001B8BF00103744A20F07F4008
:101CE000ACEB040C2CF07F4C834298BFB0F5800F16
:101CF000DFD26245DDD3204603F003F867490D9A31
:101D000001F1010C161AB6EB9C0F24BF831AB3EB3A
:101D10009C0F10D3B14208D2081A1044461C0AE0A6
:101D200040F62B21702002F0EDF999422CD2891A4D
:101D30000844401C46425748807F50B328464546D9
:101D40004FF0000BD846012805D0022001F05CFDC1
:101D5000012001F059FDA9452CD2A6EB05014FF059
:101D600001034FF003024FF0020001F085FC002850
:101D700008BF4FF00108B9F1000F35D00123A6EBE1
:101D800009010322184623E040F60B31702002F0CF
:101D9000B9F9C14534BF40464846BBF1000F14BFF6
:101DA00000211E210844B042C8DB40F63E217020CD
:101DB00002F0A8F910D90123A6EB09010322184665
:101DC00001F05AFC28B37DB1711B012303220220CC
:101DD00001F052FCE8B107E055EA090004D040F6F2
:101DE0007611702002F08EF9012303223146002083
:101DF00001F042FC68B10125B8F1000F03D014983E
:101E00000F908DF84CB0DFF8A880BAF1000F0ED11A
:101E100009E0022001F0F8FC012001F0F5FC1BB004
:101E20000020BDE8F08F1B4890F82D0000B14FB3A3
:101E3000DFF860A09AF82C0018B101F0CDFF8AF805
:101E40002CB007B3A4F1320020F07F414FF4002002
:101E5000C8F8000000230322052001F00DFC68B340
:101E60004FF08044052001F0AFFD1249C1F8100584
:101E7000C1F814451049E0120860064C94F82D0092
:101E8000E8B359E01BE01FE00805004014040020FF
:101E9000000E00208011002016040020FF7F841E09
:101EA0000020A10700E05EF80080841EFFFF3F00D5
:101EB00008F5014098F0014004F5014033E0DFF8F7
:101EC000B4A09AF82C0048B32A4C94F82D0050B1D5
:101ED0004FF40020C8F80000052001F095FC01F047
:101EE000E3FF84F82DB00DF13008234898E8FE1088
:101EF000C0F88013C0F88423C0F8883300E017E0EE
:101F0000C0F88C43C0F89053C0F89463C0F898733D
:101F1000C0F89CC31BB00120BDE8F08F01F078FF32
:101F20008AF82C508DE740F25131702002F0EAF827
:101F300001F0ACFF84F82D50A6EB0900A0F11901C7
:101F4000002904DC40F66821702002F0DBF803224F
:101F50000123104601F090FB38B108488068C0F8B2
:101F600000B00748C0F800B0BDE740F6732170200C
:101F700002F0C8F880110020000E00201404002098
:101F8000080500402DE9F043064683B008789073B9
:101F9000CF7A5773887A10730889144650810D469A
:101FA0000A785F4999464FEA810C4B42ACF101082F
:101FB0005AB1C043D5F8048004F1080288423DDDDF
:101FC00040F21761702002F09DF8EE686D686FEACC
:101FD000000904F1080206EB0900464504D940F265
:101FE0001661702002F08EF88945E9DC994528DBFE
:101FF0008445DCBF00F5F700A0F1F85005DD0028AE
:10200000BCBFA0F5F70000F1F850214601F058F8E8
:10201000206820F07F417019401C2160002F08BF0C
:102020007A3003D0012F08BF44302DD101F02CF8B5
:1020300020F07F40606003B0BDE8F0830146984225
:1020400004DA4FF4C361702002F05CF88445DCBF11
:10205000A1F1F450A0F5902005DD0028BCBF01F1EE
:10206000F45000F59020214601F02AF82068002F56
:1020700020F07F4108F10100216008BF7A3008D0CC
:10208000012F08BF443004D040F2BE61702002F03E
:1020900039F800F0F9FF20F07F416160608901AA02
:1020A000694601F00DF81F4890F82F10202923D021
:1020B0000069401D20F07F40D4E90021891A20608A
:1020C000084420F07F4060604B4632462146E86875
:1020D000FFF7D4FA00281CBF03B0BDE8F083D4E9B1
:1020E0000010401A304426F07F4120F07F40C4E9C0
:1020F000001003B0BDE8F083608906F1090720B144
:1021000001F09CFF002808BF32370748417800984B
:10211000814284BF081A074427F07F40CCE70000C3
:102120000020A107801100201604002010B5154CD6
:1021300094F82F00202818BF10BD94F82E2004EB2F
:10214000820090F82010202917D0DFF83CC00CEB5B
:10215000821303EB41035B7880F82030012380F881
:10216000233084F82B3084F82F10022000F0B0F8D0
:10217000002084F82A00A07710BD40F29E31702024
:1021800001F0C0FF80110020001100202DE9F05F58
:10219000DFF8B88098F82E5008EB850090F82140C1
:1021A000202C08BFBDE8F09FDFF8A4B0DFF8A4A0A2
:1021B000AAF540790AEB8517072617F814000128BD
:1021C0000ED0042808BF02260AD005280CBF03261B
:1021D000062805D040F6D8014FF0700001F092FFBC
:1021E000BBF1000F18BFAFF30080EFF3108072B6A1
:1021F00007EB44014A7808EB850181F8212091F82A
:102200002220A24204BF202281F82220B8B12A460F
:102210002146012000F05CF804EB440109EBC10009
:1022200059F8312040683146904798F82E5008EB15
:10223000850090F82140202CBCD1BDE8F09F0648D5
:10224000002818BFAFF3008062B6E0E780110020DD
:1022500000000000001100200000000010B504463E
:10226000006802F04EFD02466089217A144B084452
:10227000411C50189A4204D940F21661702001F0B6
:1022800041FF104A914204DD40F21761702001F0D5
:1022900039FF0D4A914204DA4FF4C361702001F016
:1022A00031FF0A498142DEBF00F5F700A0F1F85086
:1022B00010BD0028BCBFA0F5F70000F1F85010BD1C
:1022C000FF7F841E0020A10700E05EF80080841ECE
:1022D000DFF854C010B500230CEB821C07281ED277
:1022E000DFE800F0050505050404040001230CF8EF
:1022F0001100002B08BF10BD0C4800EB820292F8C1
:10230000220020280EBF82F821100CEB4000417003
:1023100020200CEB4103587082F8221010BD40F2CF
:102320006721702001F0EEFE0011002080110020D6
:102330002DE9F34F83B05C48049900EB81000190D4
:1023400090F8204003982546012818BF022805D0A0
:1023500040F6AF214FF0700001F0D4FE0027202D91
:102360004AD0514800910026807F002808BF0226ED
:1023700000F0FCFFDFF838A104EB44010AEBC101D7
:10238000DFF828918A68C968121A091A22F07F4278
:1023900021F07F41964298BFB2F5800F01D2894566
:1023A00028D2444A009902EB811B22460BEB4201E2
:1023B0004C78202C16D004EB44010AEBC10CDCF85D
:1023C0000880DCF80CC0A8EB000828F07F48ACEBD4
:1023D000000121F07F41464598BFB8F5800FE4D257
:1023E0008945E2D3202A05D020210420009BFFF755
:1023F00009F90446AC4215D12F48002818BFAFF3A5
:10240000008000F0B3FF284C94F8301020290DD044
:10241000E168821C511A0902CA1701EB1261091204
:10242000002903DD05B00020BDE8F08F202D0DD080
:102430002A460399FFF718FB58B3019880F82370D8
:1024400084F8305005B00120BDE8F08F94F82C00DE
:1024500018B101F0C1FC84F82C7094F82D0050B133
:1024600016494FF400200860052001F0CDF901F075
:102470001BFD84F82D70042001F0C6F901F02CFA40
:10248000202084F830000E48806807600D480760FF
:10249000D8E72A4620210420049BFFF7B3F805B0B3
:1024A0000020BDE8F08F000080110020FFFF3F00FA
:1024B000000E0020001100200000000008F501407F
:1024C00014040020080500402DE9F04F5B4E8146C2
:1024D00085B096F82F008A4620284DD096F82F0018
:1024E00006F10C0400EB4000A6F5607808EBC0078D
:1024F00020208DF8000096F82E0003AA06EB80003D
:1025000001A990F82050306902903068484400F0EA
:10251000D7FDF86801994A4A0844A9F1640191423B
:102520002FD8B968411A21F07F41B1F5800F28D228
:1025300020F07F406060304684F80CA090F82E00B8
:10254000EA46202D1CBF3F4901EB801B3CD005EB28
:10255000450008EBC0076068BA682146101A0002FF
:10256000C21700EB126007F1080600121BD4708935
:1025700050B3488948B127E040F67331702001F02C
:10258000C1FD05B00120BDE8F08F2046FFF766FED3
:1025900000F07AFD3168081A0002C11700EB1160E3
:1025A0000012332810DA8AF80050397D207B8142EE
:1025B00005D80298606005B00220BDE8F08F0BEBF3
:1025C00045004578202DC2D1052001F01DF91B4C96
:1025D0004FF0FF30A06094F82E309DF800202021AD
:1025E000202A13BF052004EB830090F82000FFF79A
:1025F00009F894F82E20134901EB821194F82F204A
:1026000001EB42014870206848442060012084F8B2
:102610002B00607E012805D12069401E20F07F40FC
:1026200000F044FF9DF80000202803D006484078C1
:1026300001F038FE05B00020BDE8F08F80110020C9
:102640009C1FA107001100201404002070B5234A2C
:1026500092F82F10202939D092F82F10A2F560732C
:1026600001EB410103EBC10C92F82E1092F82E40C1
:1026700002EB810191F82010A2F1800505EB841492
:10268000202928D001EB410503EBC5052D7D8542AE
:1026900084BF04EB41014978F2D801EB410103EB1F
:1026A000C101DCF80C0089681468081A0002C1171F
:1026B00000EB1160001207D402F023FB04F1640167
:1026C000884224BF001B70BD002070BD40F64C3115
:1026D000702001F017FD4FF0FF3070BD8011002019
:1026E0000246144B10B508449A4204D940F21661D0
:1026F000702001F007FD104A914204DD40F217619D
:10270000702001F0FFFC0D4A914204DA4FF4C361DE
:10271000702001F0F7FC0A498142DEBF00F5F700A6
:10272000A0F1F85010BD0028BCBFA0F5F70000F1E3
:10273000F85010BDFF7F841E0020A10700E05EF866
:102740000080841E074991F83020824204BF486807
:10275000704700EB4000044901EBC0000830FFF770
:102760007DBD000080110020000E00200E4910B534
:1027700091F82F00202812D091F82F00A1F5607257
:1027800000EB400002EBC00091F82F10406801EB15
:10279000410152F83120BDE810400421104740F6B5
:1027A000BB01702001F0AEFC8011002070B56A4DB5
:1027B0006A49012605F5607408287DD2DFE800F03B
:1027C000046197A9C643AEB394F82C0018B901F080
:1027D0001FFB84F82C60E08A10B101F02FFC88B157
:1027E000FFF7A4FC84F82960A168B1F1FF3F05D090
:1027F00001230322052000F03FFF40B1607E012845
:1028000010D109E040F66F01702001F07BFC40F62A
:102810007401702001F076FC2069401E20F07F409A
:1028200000F044FE94F82F0094F82F1000EB4000C5
:1028300005EBC000406801EB410155F83120BDE8CF
:10284000704001211047FFF771FC4FF0FF30A0608E
:1028500094F8290080B194F82F0094F82F1000EB21
:10286000400005EBC000406801EB410155F8312004
:10287000BDE870400621104740F68501702001F048
:1028800041FCFFF753FC84F8286001F0D7FB18B136
:1028900094F82C0028B108E040F69501702001F072
:1028A00031FC01F0B5FA84F82C6094F82D0068B181
:1028B0004FF400202A4900E048E00860052000F0BD
:1028C000A3FF01F0F1FA002084F82D0094F82F0006
:1028D00094F82F1000EB400005EBC000406801EBBE
:1028E000410155F83120BDE870400021104701F04A
:1028F0003DF8E08A10B101F0A1FB28B11948007839
:10290000032808BF667770BD4FF40A61702001F09C
:10291000F9FB154806608868066070BD0878BDE858
:10292000704001F0BFBCFFF701FC94F82F0094F851
:102930002F1000EB400005EBC000406801EB4101A7
:1029400055F83120BDE870400521104740F6B3012D
:10295000702001F0D7FB0000000E002014040020BE
:1029600008F5014016040020080500402DE9F34F4A
:102970008246D1488BB00068D04DC005C00D0ED046
:10298000103840B20028B8BF00F00F0000F1E0207E
:10299000ACBF90F8000490F8140D40090DD00C98CD
:1029A0004FF0000B0078002818BF012818D040F223
:1029B0005C714FF0700001F0A5FB95F82F004FF00F
:1029C000010B202807D00C98007848B14FF4EB6138
:1029D000702001F097FB40F25571702001F092FBDE
:1029E000B74C24B1002140F25F70AFF30080B549CD
:1029F0000AEB4A0001EBC0004FF00108009024B13F
:102A0000002140F26770AFF30080B8F1000F09D0E9
:102A100095F82E604FF0000985F82B90BBF1000F60
:102A200007D02EE0A848002818BFAFF3008062B698
:102A3000EEE73746012020EA0706A448402200EBD3
:102A4000871100EB861002F084FA24B1002140F2D5
:102A5000DA50AFF3008005EB870105EB8600096AC9
:102A6000016224B1002140F2DE50AFF3008024B1B6
:102A7000002140F27170AFF3008095F82B00002820
:102A8000BDD124B1002140F27B70AFF3008000F093
:102A90006DFC8046334606AA0C99FFF773FA24B101
:102AA000002140F28270AFF30080884906A801EB54
:102AB000861717F81A10012918BF02293ED1069966
:102AC000079BA1EB0801824A21F07F41A3EB080399
:102AD00023F07F4302296AD3B1F5800F67D29A426F
:102AE00065D34FF0010901AB05AA3146FEF73CFF63
:102AF000002864D09DF814109DF8042033468A42C3
:102B000061D00520FEF77EFD4FEA000107EB4A0089
:102B100041709DF81400202803BF05EB860080F863
:102B200020A080F8239007EB400018BF80F801A098
:102B3000324651465FF00300FFF7CAFB05EB860003
:102B400090F8237024B1002140F28970AFF3008027
:102B50006048002818BFAFF30080EFF3108872B60A
:102B600024B1002140F28F70AFF3008095F82B0064
:102B700000287FF444AF24B1002140F29770AFF3F6
:102B800000800DF1180E00989EE80E1000F108006C
:102B9000B9F1000F80E80E1042D024B1002140F2BC
:102BA000A470AFF30080BBF1000F2BD115E03246CB
:102BB00051460420FFF78CFB4FF00109BEE7324677
:102BC00051460420B8E7202919BF07EB410041789E
:102BD00005EB860090F8201098E79FB195F82F003C
:102BE00020280FD124B1002140F2A970AFF300805A
:102BF00031460220FFF79CFB20B90C980078E8B31F
:102C0000012849D024B1002140F2C670AFF3008002
:102C100085F82E60012085F82B0000BF4FF00109D8
:102C200024B1002140F2CF70AFF30080B8F1000F63
:102C30003BD024B1002140F2D370AFF30080B9F152
:102C4000000F11D095F82E0005EB800090F82100C0
:102C5000202809D024B1002140F2DA70AFF30080BF
:102C60001D48407801F01EFB24B1002140F2DF70C6
:102C7000AFF300800DB04846BDE8F08FFFE724B108
:102C8000002140F2B170AFF3008095F82E2051463C
:102C90000420FFF71DFBC1E7002C3FF4B0AE00217C
:102CA00040F2BC70AFF30080A9E60748002818BFC7
:102CB000AFF3008062B6BCE704ED00E080110020B5
:102CC00000000000000E00200000000000110020A5
:102CD000FFFF3F00000000001404002010B5202872
:102CE00011D20E4991F82E30A1F1800202EB831C23
:102CF0001CF810303BB191F82E3002EB831212F821
:102D00001020012A01D0002010BD91F82E2001468C
:102D10000020FFF7DDFA012010BD00008011002027
:102D200070B50D46064601F077F90F4890F82E2051
:102D30000024803800EB821010F8141029B1611CB7
:102D4000CCB2202CF8D3202070BD084804EB4401FD
:102D500040F8316000EBC100214645600120FFF7DB
:102D6000B7FA204670BD000080110020000E002040
:102D70002DE9F04F83B000F0F9FA054600F0ACFD04
:102D8000634CA068B0F1FF3F1CBF4FF0FF30A06064
:102D9000A07FDFF880B1A8B9D4E90301081A0002C6
:102DA000C11700EB116000124FF40C7101F0D6FF57
:102DB00021690844281A0002C11700EB11600012B3
:102DC000C00F0BD0607EE8B100F0DCFB94F82A0065
:102DD000F0B140F25441702001F094F994F82F00C2
:102DE00094F82F1000EB40000BEBC000406801EBA3
:102DF00041015BF831200821904740F243417020A7
:102E000001F080F9E81C20F07F4000F0B5FADDE722
:102E10004FF0010A84F82AA094F82F00202824D02B
:102E200094F82F80202084F82F0084F830000026AA
:102E300084F8286084F829603748266000780228E2
:102E400016BF032801200020207794F82E7004EB91
:102E5000870999F82000202831D000EB40000BEBC7
:102E6000C000817D012905D029E040F25741702042
:102E700001F048F9AB4600F10805408A01AA69460D
:102E800000F01EF994F82F00202804D02069401D7E
:102E900020F07F400BE068890BF1090B28B101F0AD
:102EA000CDF8002808BF0BF1320B2BF07F40D5E99D
:102EB0000021891A2860084420F07F406860394664
:102EC0000120FFF735FA0028F9D0144800EB8710ED
:102ED00010F81800022804D13A4641460620FFF7B0
:102EE000F7F984F82BA099F82100202803D00C488A
:102EF000407801F0D7F9207F002804BF03B0BDE877
:102F0000F08F00F033FD2677667703B0BDE8F08FD1
:102F100080110020000E0020160400200011002067
:102F20001404002010B5304C82B094F82F102029E2
:102F300008D0A168B1F1FF3F09D040F6E821702028
:102F400001F0E0F840F6E721702001F0DBF862685C
:102F50000146264B50189A4204D940F2166170205F
:102F600001F0D0F8224A914204DD40F2176170204E
:102F700001F0C8F81F4A914204DA4FF4C36170208F
:102F800001F0C0F81C498142DCBF00F5F700A0F158
:102F9000F85005DD0028BCBFA0F5F70000F1F8509F
:102FA00001AA694600F08CF89DF804000F288CBF38
:102FB000012000200099084420F07F41A16094F88E
:102FC0002900002804BF02B010BD01230322052000
:102FD00000F052FB00281CBF02B010BD4FF42F615F
:102FE000702001F08FF8000080110020FF7F841E08
:102FF0000020A10700E05EF80080841E70B51E4C22
:10300000202184F8201084F8211084F82210002058
:1030100084F8230084F82E0084F82F10421EA2604A
:103020002060A07784F8280084F829002077607752
:1030300084F83010114984F82C0084F82D000870B1
:1030400048704880A4F182011022887001F8040FB2
:10305000521EFAD10A4D012684F82A60FF202870FA
:10306000084801F001F9687001F05CF9A86000F00F
:10307000C5FC84F8316070BD80110020160400206A
:10308000140400208D210000410B48F237625143A7
:103090000A0C094B510202FB03020848504300F599
:1030A00086306E30400D5B4210FB03F3B2EB532FC2
:1030B00088BF491C08447047F7C2FFFF6F0C01002E
:1030C000430B48F2376C03FB0CF330B41B0CDFF8F6
:1030D00044C05C0203FB0C030F4858434FEA505CAA
:1030E00004EB0C0043F609541CFB04F404F5807C4B
:1030F00043F60855A3EB5C2C2C440CF0FF0CB3EB0F
:10310000542F84BF4FF0000C401C086082F800C0B0
:1031100030BC7047F7C2FFFF6F0C01002DE9F04192
:10312000384CD4F80403DFF8E08010F4803F4FF40B
:1031300000664FF0E0274FF000051CBFD4F84001B7
:10314000002817D0C4F84051C7F880622F480068A3
:10315000D8F80010A0EB010020F07F40022802D335
:10316000B0F5800F06D34FF48030C4F80803042074
:10317000FFF71CFBD4F8040310F4003F1CBFD4F885
:103180004401002817D0C4F84451C7F88062204891
:103190000068D8F80010A0EB010020F07F40022862
:1031A00002D3B0F5800F06D34FF40030C4F8080303
:1031B0000520FFF7FBFAD4F8040310F4802F1ABFA0
:1031C000D4F848010028BDE8F081C4F84851C7F898
:1031D000806210480068D8F80010A0EB010020F0D1
:1031E0007F40022804D3B0F5800F38BFBDE8F081DE
:1031F0004FF48020C4F80803BDE8F0410620FFF733
:10320000D5BA000000B0004004B5004040B5004011
:1032100044B5004048B500402DE9F0413A4D2878CA
:1032200004286CD0E81C0122017859B1012908BF9B
:103230006A7002D0697800295CD002210170407860
:1032400000F0E2FA314CD4F804034FF0000810F417
:10325000002F4FF480764FF0E0271CBFD4F84C01CC
:10326000002808D04FF0030000F0CEFAC7F88062C3
:103270000320FFF79BFAD4F8040310F4802F1CBF3F
:10328000D4F84801002808D04FF0020000F0BCFA42
:10329000C7F880620220FFF789FAD4F8040310F41B
:1032A000003F1CBFD4F84401002808D04FF00100B3
:1032B00000F0AAFAC7F880620120FFF777FAD4F885
:1032C000040310F4803F1ABFD4F840010028BDE881
:1032D000F0814FF0000000F097FAC7F880620420F8
:1032E0002870C5F80880C4F80082BDE8F0410020CD
:1032F000FFF75CBA40F266316C2000F003FFBDE8D6
:10330000F0410720FFF752BA20040020008000405F
:10331000012213024FF0E0210020C1F8803101F5B5
:10332000C071BFF34F8FBFF36F8FC1F800310C49ED
:103330004A60431EC1F808330A4B1860C1F84001C7
:103340001B1D1860C1F844011B1D1860C1F848011D
:103350001B1D1860C1F84C010A6103494870704791
:1033600000800040408500402004002001480068A3
:103370007047000004B500402DE9F05F414E04465F
:10338000F71E96F800C0F868BCF1010F04BFA04218
:10339000BDE8F09F4FF040413B4A11603B496FF45C
:1033A0008023C1F808333A4A4FF00005BCF1000F02
:1033B00057D06FF4A023C1F848331560C1F84451C9
:1033C000D1F848214FF0E0294FF00108002A04BF4E
:1033D0004FF40062C9F880224FF48033C1F80833FB
:1033E000C1F84833C1F840512A4AD2F800A0A4EBF2
:1033F0000A0A2AF07F4BBBF1020F3CD34FF0020ABE
:10340000BBF5800F37D2C1F84045C1F84433BCF159
:10341000000F05D01168411A21F07F410229F9D32C
:10342000C7F808803D70FFF773FF1B480560001D5B
:10343000C0F800A01949042008601949C1F80C809F
:10344000BA68C1F800228101C9F88012C9F80011D8
:10345000144A41071160FC60707086F80080BDE876
:10346000F09FC1F84833104B1D60C1F84051156002
:10347000C1F84451A4E7C1F8405540F2EF116C2067
:1034800000F040FE2304002008F5014000B0004099
:1034900044B5004004B5004004850040108500405C
:1034A0000080004004F5014040B500402DE9F041A6
:1034B0002B4CE168814214BF01220022DFF8A4C036
:1034C0009CF80070022F02D0002A38D003E0002AB6
:1034D00008BFBDE8F081627882B3234B4FF0804291
:1034E0001A60224B9513C3F80853C3F848530026BB
:1034F000C3F840611E4AD2F80080A0EB080828F00B
:103500007F48B8F1020F24D3B8F5800F21D2C3F859
:103510004005C3F844532FB11368CB1A23F07F43FF
:10352000022BF9D3134B02214A071A60E0600420F2
:103530008CF801008CF80010BDE8F08104E040F246
:10354000FD116C2000F0DEFD40F201216C2000F046
:10355000D9FDC3F8406540F20D216C2000F0D2FD8A
:10356000200400202304002008F5014000B00040A2
:1035700004B5004004F501400148C06870470000F0
:10358000200400202DE9F04133486FF48024C0F876
:103590000843DFF8C8C0324A00219CF8003063B10C
:1035A0006FF4A024C0F848431160C0F8441100BF74
:1035B000D0F84801012280B909E0C0F84843294CFD
:1035C0002160C0F840111160C0F84411F0E74FF0DD
:1035D000E0244FF40060C4F88002022B04D040F2D3
:1035E00019216C2000F08EFD1F4E30681F4CC01C4E
:1035F00020F07F40E3681E4D98420BD03768DF1BF8
:1036000027F07F47042F05D3B7F5800F02D2FFF7CD
:10361000B3FE1BE03068181A20F07F40022813D355
:10362000B0F5800F10D2134B4FF080401860A260AD
:1036300021706A60EA604000191F086004208CF85D
:1036400001008CF8002001E0A2602170A068C5F89C
:103650000002BDE8F081000000B00040230400201B
:1036600044B5004040B5004004B5004020040020AF
:103670000080004008F501402DE9F047DFF874C1F3
:1036800001274FF000089CF800509CF801C0072863
:103690007ED2DFE800F0040404046A6A6A00564C33
:1036A000E668B6F1807F04BF6478002C02D0022D5A
:1036B00005D03CE04FF413716C2000F023FD4FEA7D
:1036C0008C0404F18046ACF104042406A40D04F13A
:1036D000804906F5004609F530490024012D02D045
:1036E000022D11D020E0BCF1040F05D2D6F840A184
:1036F000BAF1000F18D104E0D9F840A1BAF1000FD7
:1037000012D14FF000440FE0BCF1040F05D2D6F8FF
:1037100040A1BAF1000F07D104E0D9F840A1BAF1F5
:10372000000F01D144F0804414F0804FD5D1334CC8
:1037300000F1100C07FA0CFCC4F808C38000204408
:1037400052B10764D0F840658D1B25F07F45AA4231
:1037500098BFB5F5800F43D2C0F84015012B08BFC4
:10376000C4F804C30120BDE8F08735B1844504D115
:1037700040F26F216C2000F0C5FC001FC0B2012B8D
:103780000CBF01240024032806D340F2491100E0B5
:103790002BE06C2000F0B6FCDFF864C000F11003F1
:1037A00007FA03F3CCF80833CCF8483380006044C0
:1037B000C0F840814AB1134D2E688D1B25F07F451E
:1037C000AA4298BFB5F5800F0AD2C0F84015002C68
:1037D00018BFCCF80433CCF844330120BDE8F0879F
:1037E000C0F840850020BDE8F0874FF41D716C20C3
:1037F00000F088FC2304002020040020008000400A
:1038000000B0004004B50040F8B5012700240728A7
:103810004CD2DFE800F00404040416161600264A11
:1038200000F1100107FA01F1C2F8081381001144F8
:10383000C1F84045C1F84041204951F820000090AE
:10384000F8BD1F4D011FCEB2297879B16A78824246
:103850000CD11C4A4FF040401060012908BFFFF70F
:1038600057FD2C7018494FF08070C86006F11000A9
:1038700007FA00F11548C0F80813C0F84813B00063
:1038800000F1804000F53040D0F84015104A126831
:10389000891A21F07F41022924BFC0F84045C0F8B1
:1038A00040410C4850F826000090F8BD40F2ED2150
:1038B0006C2000F027FC00000080004040810040A8
:1038C0002304002008F501402004002000B000403F
:1038D00004B5004040B100401E496FF48023C1F898
:1038E00008331D481D4A90F800C00020BCF1000FAD
:1038F0000AD06FF4A023C1F848331060C1F8440126
:10390000D1F8481181B909E0C1F84833144B186067
:10391000C1F840011060C1F84401F1E74FF0E02226
:103920004FF40061C2F880120E494FF0FF32C1F827
:1039300008230D4A1060C1F84001121D1060C1F843
:103940004401121D1060C1F84801121D1060C1F839
:103950004C01704700B000402304002044B50040F3
:1039600040B500400080004040850040084890F984
:1039700002000028B8BF704700F01F01012202FAC0
:1039800001F14009800000F1E020C0F8001270470A
:103990002004002010B507280DD2DFE800F0040451
:1039A000040406060600064902E0001F0549C0B2ED
:1039B00001EB800010BD4FF426716C2000F0A2FBDB
:1039C0004081004040B1004010B507280DD2DFE82B
:1039D00000F00404040406060600064902E0001F85
:1039E0000549C0B201EB800010BD4FF426716C2078
:1039F00000F088FB4081004040B1004070B519489C
:103A0000002404210470C01E01708905C160FFF705
:103A10007FFC01254FF0E02CEB02CCF88031BFF3A6
:103A20004F8FBFF36F8FCCF880320F4A556095608F
:103A30000E4801680029FCD1481EC2F80803C2F8EC
:103A400048030B480460C2F84041001D0460C2F8FE
:103A50004441001D0460C2F84841CCF800311560B3
:103A600070BD00002304002000B0004004B50040F9
:103A700040B500402DE9F041164C607A002827D06F
:103A80004FF480718D05284601F08CF980464FF483
:103A90008271284601F086F900260746B8F1000F2A
:103AA00009D00120C5F80803207920B12671E0690A
:103AB00008B18047E66137B1C5F804610220C5F856
:103AC000080300F067FA4046BDE8F04100F05AB83C
:103AD000BDE8F0813004002010B501F00DFA30B9D6
:103AE00001F021FA18B901F02AFA002802D002499F
:103AF0000220086010BD0000340C004070B500F0DA
:103B000087F900F09BFA094C4FF0804530B1FFF780
:103B1000E3FF012028610420A07204E00320A072CA
:103B20000120C5F804030020E07170BD30040020BE
:103B300070B5134CA079F0B1012803D0E179401E93
:103B4000814218DA00F07AFA054600F04BFBA179C1
:103B5000012902D9E179491CE1710DB1616900E0E7
:103B60002169411A022902DA11F1020F07DC0DB1B5
:103B7000606100E02061BDE87040FFF7BFBF70BD2D
:103B8000300400202DE9F04706464FF080454FF401
:103B90008671284601F006F980464FF48871284660
:103BA00001F000F9274C8246277804F1080001F063
:103BB0006DF910B14FF4D57116E04FF0010946B11F
:103BC000A07A032805D10420A072FFF785FFC5F86D
:103BD00010900026B8F1000F18D0C5F80C61A07A3B
:103BE000042804D04FF4DE716D2000F08BFA01F050
:103BF00083F928B901F097F910B901F0A0F908B1DB
:103C0000114806600220A07200F0E6F8BAF1000F39
:103C100008D0C5F81061A07A022801D1FFF788FF0B
:103C2000C5F814903FB12670A07A022801D1FFF7A1
:103C300065FF00F0D1F8BDE8F0470248083001F018
:103C40003CB9000030040020340C00402DE9F0475E
:103C50005C4C4FF000080646C4F818804378827820
:103C60000078E07263710127A271BD0784F80780B4
:103C7000052824D2DFE800F00F03051F2100A7610B
:103C800009E000F0C5F80121284601F090F800286D
:103C9000F9D00220A06101F0B6F8B0B100F0E8F967
:103CA000217E01F0030188420FD1B07950B102208A
:103CB000C5F804036AE04448ECE74448EAE74FF4F7
:103CC0004C7149E000F0A8F960E0EF604FF4827AAF
:103CD000C5F80481A069C5F8180501F0F9F840B9E4
:103CE00001F000F928B901F014F910B901F01BF93D
:103CF00038B14FF080513648D1F84412C1F3423107
:103D0000016001F0E5F840B901F0ECF828B901F0E4
:103D100000F910B901F007F910B12D481030076013
:103D2000AF600220C5F80403B07978BBD5F804036E
:103D300010F0020F0ED0DFF89C90D9F80010C943A4
:103D400041F30017D9F8001041F01001C9F8001034
:103D50007F1C07E040F2F1216D2000F0D3F900BF95
:103D600000F0F6FA5146284601F01CF80028F7D07A
:103D700000F052F92FB9D9F8001021F01001C9F85C
:103D800000100220C5F80803C5F80481A07970B1BD
:103D9000307860B900F052F9064600F023FA6FF06F
:103DA000004216B1C4E9042001E0C4E90402012183
:103DB000284600F0FCFF08B100F03AF984F80A80C8
:103DC000BDE8F0873004002001000200010003007C
:103DD0003C05004010ED00E010B5EFF3108472B622
:103DE0000A48417829B14178491E4170417829B18A
:103DF00008E040F20D116D2000F084F9807808B9D8
:103E000000F02AF9002C00D162B610BD3004002069
:103E100010B5EFF3108472B606484178491C417022
:103E20004078012801D100F0D9FF002C00D162B602
:103E300010BD000030040020054810B5C17821B144
:103E400000210171C170FFF7C7FF002010BD000005
:103E50003004002070B50C4CE17861B90125E570A3
:103E6000E061FFF7D5FF00F0E9F830B1E06910B18B
:103E700080470020E061002070BD4FF08040257138
:103E8000C0F80453F7E7000030040020EFF310807F
:103E900072B604498A78521C8A70002800D162B632
:103EA000704700003004002010B5EFF3108472B6A4
:103EB0000A48817829B18178491E8170417829B1F9
:103EC00008E040F225116D2000F01CF9807808B957
:103ED00000F0C2F8002C00D162B610BD3004002002
:103EE0002DE9F04104006FF015003CD02178042941
:103EF00039D80029617838D0002934D1A178002937
:103F000031D1002000F019FF002000F009FF4FF030
:103F100080484FF0FF31C8F808130026C8F8006148
:103F2000C8F80461C8F80C61C8F81061144F7E70BD
:103F3000A088B88100F049FF012508B1FD707D70AF
:103F40000121404600F033FF08B100F071F820462F
:103F5000FFF77CFE7D72002000F0E2FE4FF0E021D2
:103F60003046C1F80051BDE8F0810029FBD020297E
:103F7000F9D8A1782129F6D80129C2D1F3E70000A8
:103F8000300400200248807A002800D001207047C9
:103F900030040020F8B51F4DE87A00280FD1287EA4
:103FA00000F0030000F01FFF002808D0EFF310819D
:103FB00072B6FFF7E7FF18B1002900D162B6F8BD6D
:103FC0000126AE7201B962B618204FF08044C4F8E1
:103FD0000803A6614FF42070ADF80000BDF80000A2
:103FE000411EADF80010F9D20027C4F80C71C4F8D6
:103FF00010710848083000F05CFF2F70FFF77EFD5D
:104000006661687900F07F00C4F838051820C4F8AC
:104010000403F8BD3004002010B5044C207E00F0ED
:10402000030000F0E0FE0028F8D010BD30040020AE
:1040300001490120087070476C0400204FF0804057
:10404000D0F8000118B903480078002800D00120FA
:10405000704700006C0400204FF080400121416057
:104060000021C0F800110148017070476C04002065
:104070000248006800F00300704700001C04004084
:1040800010B531B1012907D04FF4427105A000F0FD
:104090000FF8D0F8140401E0D0F8080400F0010093
:1040A00010BD00006E72665F636C6F636B2E6800FC
:1040B000024A526802B11047FEE700005004002097
:1040C000064810B50021016001210160084600F09A
:1040D000B1FEBDE81040012000F09FBEFC1F004073
:1040E000074810B501214160891EC0F808130C2053
:1040F00000F0A0FEBDE810400C2000F08EBE0000D5
:1041000000C00040FEB5104A5568E5B100220346E4
:104110006E460A2403E0B0FBF4F0521CD2B2002831
:10412000F9D1B0540AE000BFB3FBF4F004FB103047
:10413000B3FBF4F3521ED2B23030B054002AF3D1A4
:104140003046A847FEBDFEE75004002070B5174C6E
:1041500006460D46607810B14FF0FF3070BD06B9CD
:10416000134E62602570FFF7ABFFFFF7B9FF3046D3
:10417000FFF7B6FE0600F1D1FEF740FFFFF70AFF9A
:1041800000F030FD284600F048FE0120002D09DB3C
:1041900005F01F0100FA01F16A09920002F1E02224
:1041A000C2F800116070304670BD0000500400205D
:1041B000564E00000148407870470000500400202F
:1041C000074890F90000002809DB00F01F020121D8
:1041D00091404009800000F1E020C0F800127047D3
:1041E000500400202DE9F04101264FF0E022310378
:1041F0004FF000084046C2F88011BFF34F8FBFF365
:104200006F8F164CC4F800010C2000F032FE144DE4
:104210002868C04340F30017286840F01000286069
:10422000C4F8046326607F1C02E000BF00F090F831
:10423000D4F800010028F9D01FB9286820F0100038
:104240002860084805686660C4F80863C4F80081FF
:104250000C2000F00EFE2846BDE8F08100C00040B2
:1042600010ED00E008C5004010B5024605200C49DD
:1042700004E000BF01EBC0031B7933B1401EC0B2A4
:10428000F8D24B216920FFF73DFF41F8302001EBC8
:10429000C00100224A718A7101220A7110BD00001A
:1042A000B411002010B5052801D35A2106E00A49AF
:1042B00001EBC0000179012903D05B216920FFF7E0
:1042C00021FF41798279491CC9B28A4200D04171EB
:1042D000BDE81040FFF774BFB411002070B505258C
:1042E0000E4E0F4C16E0217806EBC1000279012A30
:1042F00008D1427983799A4204D04279827156F882
:10430000310080472078401CC0B22070052801D3BE
:10431000002020706D1EEDB2E5D270BDB4110020FA
:104320006D04002000B500F0D3FD40B900F0DAFDC7
:1043300028B900F0EEFD10B900F0F5FD08B1024813
:1043400000BD024800BD00000C05004000E7014030
:1043500010B500F0E8FD30B3EFF31080C8B10021D4
:1043600072B6124802680368C2F3001243F01003E9
:1043700003604FF0E023D3F80042D3F804321C432B
:1043800000D040BF20BF00BF00BF00BF00BF12B1C0
:1043900005E00121E4E7026822F010020260002932
:1043A00000D062B610BD20BF10BD000010ED00E0CF
:1043B00001490968896808475804002001490968CB
:1043C0000969084758040020014800684068004710
:1043D000580400200149096809680847580400206A
:1043E0001B5100001351000007510000175100003D
:1043F0000F510000094810B58178042908D0102910
:104400000AD0202908D04FF4DF716B20FFF77AFE25
:10441000102181701EF02EFC10BD00005C040020F5
:104420000B4810B5017831B1EFF3108472B6817882
:10443000102905D008E040F20B316B20FFF762FE37
:1044400008218170FEF794FC002C00D162B610BDEB
:104450005C04002070B5124C207858B1EFF3108541
:1044600072B6607948B1022809D04FF435716B20DB
:10447000FFF748FE40F2C121F9E7012003E0A178EF
:104480000020042901D0607102E060711EF0EAFB97
:1044900005B962B6E078BDE87040FFF703BF0000E1
:1044A0005C0400200E4810B5017859B1EFF310817B
:1044B00072B642794AB1012A09D04FF43F716B209C
:1044C000FFF720FE4FF43B71F9E7022200E00022E3
:1044D000427101B962B6C078BDE81040FFF7E2BE94
:1044E0005C04002010B5134C207810B140F27E21FE
:1044F0001DE0002060700120A0700F484FF4C851EB
:10450000016005210181B72141810C4941600C48BE
:10451000FFF7AAFEE07000210A48FEF701FC2071B7
:10452000202802D00120207010BD40F28D216B2088
:10453000FFF7E8FD5C040020EC110020FF1FA1073D
:1045400071460000A545000012488178042901D079
:10455000002070478079B8B10F48D0F804050E49A3
:10456000091DD1F84015401C081A0002C11700EBC4
:1045700011600012002800DC00200849A0FB011097
:10458000420442EAD1307047054801684089081A60
:10459000704700005C04002000B0004040420F0063
:1045A000EC11002070B52F4ED6F8040500252E4CD6
:1045B000082931D2DFE801F030043A3A211C4B409F
:1045C0000121022000F0FCF8607858B10420A070AE
:1045D00026480068A060A571607902283ED01EF0D0
:1045E00041FB3BE02020A070BDE87040FEF7C0BB5F
:1045F00040F206216B20FFF785FD607800280BD084
:10460000A078042809D04FF0E0210220C1F88001F1
:10461000BFF34F8FBFF36F8F70BD00F071F810B113
:10462000D6F84401B0B910F06DF970BD0121022037
:1046300004E00120A07070BD0121282000F0C0F826
:1046400060780028F5D0BDE8704000F095B800F023
:1046500057F818B1BDE87040FFF7CCBEBDE8704018
:1046600000F056B800B000405C040020EC110020BF
:1046700070B5EFF3108472B6204D0020697968712F
:10468000C1B3012906D0022918D084F3108840F262
:104690009F1128E084F31088687810B14FF4A67158
:1046A00021E00021142000F08BF801206870A87828
:1046B000012821D1BDE8704000F05EB8697849B1A9
:1046C0006870A878082815D007DC022812D00428C2
:1046D00007D10BE040F25D1105E0102806D020283C
:1046E00008D040F279116B20FFF70CFD2020A87054
:1046F000FEF73EFB84F3108870BD00005C040020D0
:1047000002488079012800D0002070475C04002016
:1047100070B50420FDF79AFF154D2968814200D835
:10472000084606460421FDF7CFFE124C012130B1A8
:10473000012818D040F23F116B20FFF7E3FC2868F6
:10474000B042A06806D1FEF7EDFB2868A1680844D6
:10475000A06070BD3044A060A1716989401ABDE8B5
:104760007040FEF7DFBBA1716889A168081AF6E7FF
:10477000EC1100205C0400200F4810B500210160FE
:1047800001228160027001810421817200F1100117
:104790000A6842604968C160084802218170064980
:1047A0000079FEF7E3F8002804D140F203116B20F2
:1047B000FFF7A8FC10BD0000DC1100205C04002005
:1047C0000B4A10B5927812B1531E1A4201D0DD2166
:1047D00009E021B10240900608D1E22103E08243C2
:1047E000900603D1E6216B20FFF78CFC10BD000082
:1047F0005C0400207B5100009751000085510000AF
:10480000915100007F510000795100007751000064
:104810009D5100008B510000715100006951000052
:104820006D5100006351000001480068006B0047B3
:1048300068040020014A1268526A10476804002088
:10484000014909684969084768040020014800686F
:1048500000680047680400200148006800690047BC
:1048600068040020014A126892681047680400201A
:1048700001480068C068004768040020014A1268C7
:104880005268104768040020014800787047000013
:104890006E04002070472DE9F0410D0004464FF0F2
:1048A00002064FF0010708D02878D0B1012807D0C0
:1048B000022814D003283BD116E080F820700EE0C7
:1048C0006868C82803D30421FDF7FEFD08B100265F
:1048D00007E02046696800F02AF9012601E0FCF7AC
:1048E00023FE3046BDE8F08120780028F7D16868C3
:1048F000FCF7ECFDE0B16968087828B1A0780528DC
:1049000007D040F2791110E0204600F018F96770E6
:10491000E5E7204600F02BF9E07804F10C0100F007
:104920000AF80028DBD140F27B116A20FFF7EAFB8E
:1049300084F82070D3E7FEF719B82DE9F0410D4651
:1049400004000BD0267900270220092D7BD2DFE856
:1049500005F008102E2E5B647C97860040F29311C0
:10496000E2E0A07804286FD00328FCD04FF4CF7188
:10497000DAE0A078042804D0032802D04FF4D171E3
:10498000D2E00520A07084F82070207880BB002140
:10499000204600F0CCF8207B012804D0A069E0611B
:1049A0000021A26841E0E078FDF7CCFEF7E7A178AE
:1049B000042904D0032902D04FF4E071B4E0227836
:1049C00022B12146304600F0EEF8A4E0042900D0E0
:1049D0000120A070A268022D0BD00621304690471E
:1049E00000286BD00078002868D04FF4ED719BE070
:1049F00031E0052130469047002871D0007800282A
:104A00006ED040F2D5118FE0A078052802D040F298
:104A1000E11189E00221A26807E0A078052802D010
:104A200040F2E71180E0A26801213046904701463C
:104A30002046FFF730FF02286DD0F0B3012864D084
:104A400040F2272170E05DE067E0A078052802D001
:104A500040F2ED1168E0BDE8F041FCF765BDA078DB
:104A6000052802D04FF4F9715EE0A2680A213046B1
:104A7000904701462046FFF70EFF40F2F51153E044
:104A8000A178052906D062780AB1032902D040F244
:104A9000F91149E0217829B121463046BDE8F041BD
:104AA00000F081B894F8201089B184F82070A070CB
:104AB000A26808213046904701E029E02BE0002859
:104AC0000ED0007800280BD040F205212CE0617850
:104AD00059B1E07804F10C01FFF72DFF10B16770B8
:104AE000BDE8F08140F209211EE0A070A268072114
:104AF000304690470028F3D000780028F0D040F2EC
:104B0000112111E040F216210EE00421A2688CE789
:104B10000321A26889E7002DE2D100F0EFF80068D8
:104B20000028DDD040F231216A20FFF7EBFA02467F
:104B3000037B0069084410615938FEF7F3B901227C
:104B400002730022C2750A796AB1002282824A7910
:104B50005AB1042282758A686A320261C968816129
:104B60000321817070472B22F0E70322F2E710B592
:104B7000044600202073E075087980B10020A082EF
:104B8000487970B10420A075C8686A3020618968CE
:104B9000E069FDF7A5FDA0610420A07010BD2B20E9
:104BA000EDE70320EFE770B505460C46C878FEF741
:104BB00095F878B1204600F010F8A268092128463F
:104BC0009047002808D00078002805D0DB216A2013
:104BD000FFF798FAD721FAE770BD002181700170C4
:104BE0004170704770B5FCF7F9FC0546002406E0FB
:104BF0002046FCF7F9FCFFF7F0FF641CE4B2AC427E
:104C0000F6D370BD2DE9F0410D46FCF7EDFC040034
:104C100007D0A0786FF02206012806D0022810D114
:104C200003E06FF00100BDE8F0816FF0150755B1AA
:104C30002846FCF74BFC30B1287830B1A078022828
:104C400008D03046EFE73846EDE729462046FFF723
:104C500076FF03E029462046FFF789FFE07804F15C
:104C60000C01FFF768FE08B10020DCE74FF42B7160
:104C70006A20FFF747FA10B50446FCF7B5FC0100BF
:104C800004D008786FF0220268B902E06FF00100EA
:104C900010BD887838B1022807D0012805D001203E
:104CA0000870002010BD104610BD2046FFF77BFFA6
:104CB000F7E72DE9F0410E460746FCF78FFC054665
:104CC00000240AE02046FCF78FFC807818B14FF0F2
:104CD000FF30BDE8F081641CE4B2AC42F2D3082E90
:104CE00002D96FF01500F4E717B13146384601E0FC
:104CF00000210846BDE8F041FCF75CBC0020FEF74F
:104D000049BE410A43F609525143C0F3080010FB63
:104D100002F000F5807001EB50207047FDF726BDD2
:104D2000002809DB00F01F020121914040098000AA
:104D300000F1E020C0F88012704700280DDB00F081
:104D40001F02012191404009800000F1E020C0F8DD
:104D50008011BFF34F8FBFF36F8F704770B502465E
:104D6000002000291DD0A2FB0101400A40EAC150E9
:104D7000490A401C41F1000140F2A172831841F13F
:104D800000015B1C41F100040021D3F1FF33A1417C
:104D900003D271216D20FFF7B5F900F5F460B0FB87
:104DA000F2F070BD4058002800D001207047D0F8C4
:104DB0000C24D0F80C0402F00102C00303D58A428F
:104DC00001D1012070470020704710B501218807EC
:104DD000FFF756F9002800D0012010BD4FF08040A9
:104DE0000121016070474FF08041D1F81824D1F8BB
:104DF000181402F00302C90303D5824201D1012035
:104E000070470020704710B500214FF08040FFF739
:104E100037F9002800D0012010BD002809DB00F080
:104E20001F02012191404009800000F1E020C0F8FC
:104E30008012704700280DDB00F01F020121914015
:104E40004009800000F1E020C0F88011BFF34F8FCF
:104E5000BFF36F8F704700100200FA000000AC8AA9
:104E600032CD0B6DDD090BD89484B72EF3BF081833
:104E7000D87B002809DB00F01F0201219140400986
:104E8000800000F1E020C0F880127047EFF310813D
:104E900072B60278012A01D0012200E0002201232B
:104EA000037001B962B60AB1002070476FF02200AA
:104EB00070470021017008467047EFF3108172B609
:104EC0000022027001B962B600207047FFF706BAEF
:104ED0004FF08050D0F830010F2801D000207047EB
:104EE000012070474FF08050D0F830010A2801D0DF
:104EF000002070470120704700B5FFF7F3FF20B195
:104F00004FF08050D0F8340108B1002000BD0120DE
:104F100000BD4FF08050D0F830010E2801D00020A5
:104F20007047012070474FF08050D0F830010628BC
:104F300003D0401C01D000207047012070474FF083
:104F40008050D0F83001082801D00020704701209F
:104F50007047F0B480EA010C03461CF0030F3CD10B
:104F600013F0030F0BD0002A04BFF0BC704711F8F8
:104F700001CB03F801CB521E13F0030FF3D1032A28
:104F80004FD9B2F1004F4CD2C2F1000C4FEAEC7491
:104F90000CEB947C4FEAAC0CCCF1000CBCF1000F94
:104FA0001BDD0D1F1C1F1CF0010F03D055F8046FF3
:104FB00044F8046F5FEA6C0607D06F68676055F8C5
:104FC000087F44F8087F761EF7D101EB8C0103EBD4
:104FD0008C03CCF1000C02EB8C02002A04BFF0BC65
:104FE0007047B2F1004F26D2002ADCBFF0BC7047F8
:104FF000491E5B1E12F0010F03D011F801CF03F818
:1050000001CF521004BFF0BC704791F801C083F883
:1050100001C011F802CF03F802CF521EF5D1F0BC47
:105020007047042AD9D351F804CB121F43F804CB9C
:10503000042AF8D2D1E711F801CB03F801CB521EB4
:10504000F9D1F0BC704770B4034601F0FF0C10F0CA
:10505000030F09D0002A04BF70BC704703F801CBCE
:10506000521E13F0030FF5D1C9B241EA012141EA02
:105070000145032A39D9B2F1004F36D25142CC173B
:1050800001EB947189104E42002E11DD191F16F0AC
:10509000010F18BF41F8045F741004D04D6041F84F
:1050A000085F641EFAD1714203EB860302EB8102B2
:1050B000002A04BF70BC7047B2F1004F1DD2002A15
:1050C000DCBF70BC7047591E12F0010F18BF01F809
:1050D00001CF521004BF70BC704781F801C001F8C5
:1050E00002CF521EF9D170BC7047042AE0D3121FC0
:1050F00043F8045B042AFAD2DAE703F801CB521E24
:10510000FBD170BC70470721017000207047002060
:105110007047002070470020704708B1002070479A
:105120006FF01500704700B50346FFF70DFA98427F
:1051300001D9012000BD002000BD08B50B380A468A
:105140000F2801D9372106E0C1B26B460420FCF7D5
:10515000A3F918B140216420FEF7D4FF9DF90000A7
:1051600008BD4FF0FF3070470020704700207047A7
:105170004FF0FF30704770477047002070474FF086
:10518000FF3070474FF0FF307047002101707047CB
:105190004FF0FF3070474FF0FF30704700207047EE
:1051A000014011F0040F00D1704710B582B0154CCA
:1051B00094F885204921144837F03AF894F885305E
:1051C00063B10121002211480AF060FB444238B962
:1051D00049210F4837F02CF802B010BD0021F1E74B
:1051E000204612F0CDFC034640F285120192094A96
:1051F000009222464521084837F01AF804203FF073
:1052000081FD00BF10280020187C04001D52000002
:10521000647C0400547C0400387C040070B588B0C1
:1052200004460E460A4649210F4837F001F800258A
:10523000ADF81E500095F3B22A46112120463BF0EE
:10524000D1FF01460495062303934FF48273029322
:105250000C230193009302230DF11E0220463BF024
:105260002BFF08B070BD00BF7C7C040008B50E4861
:105270000E4B18603FF030FD30B10B480C4B1860FE
:105280003FF02AFD40B108BD084B1B681A68452154
:10529000084836F0CDFFF0E7054B1B681A6845213A
:1052A000054836F0C5FFEEE7C4790400BC4600208F
:1052B000C04600209C7C0400C47C040008B50B4858
:1052C00008F0E4FC30B908F027FE024640B9FFF7C9
:1052D000CDFF08BD02464521054836F0A9FFF2E79B
:1052E0004521044836F0A4FFF1E700BFA1510000BA
:1052F000F87C04001C7D04002DE9F04383B0284CA9
:105300004FF0030984F80090012666700A27A77001
:105310004FF00B0884F803800C222249601D37F0FF
:10532000ACFF0C25257142461F4904F1260037F0D9
:10533000A4FF84F825802A461C4904F1470037F071
:105340009CFF84F8465084F857900922184904F1CC
:10535000590037F092FF092384F85830002584F86B
:105360006950A4F87C5084F88560FF2384F8863067
:10537000A4F88850019504F1850300932B4632462A
:10538000062138463BF056FD0195863400942B46A5
:105390003246082138463BF04DFD03B0BDE8F083AE
:1053A000102800203C7D04004C7D0400587D040042
:1053B000687D04002DE9F04F85B044F6206303FBBF
:1053C00000F36C48A0FB03234FEAD3180A2908D046
:1053D0000B296AD04921684836F02AFF05B0BDE89C
:1053E000F08F664BD3F800A0DAF808305B6802AAA9
:1053F00008215046984700284ED1029CDDF80C90B9
:105400004FEA8901A30041EA94721B1942EB090299
:10541000D10041EA5371D800031B61EB090211016D
:1054200041EA13711801061941EB09077B0143EAB0
:10543000D663720116461F46514A0023304639464C
:10544000FBF7AEFE83464FF0FF324E4BBB4208BF28
:10545000B24224D3A8FB044508FB0955484A00235F
:1054600020462946FBF79CFE03464FF0FF30454996
:10547000A94208BFA04215D3DAF808201468002218
:1054800000925A4608215046A0470028A6D0452140
:105490003D4836F0CDFEA1E76FF00400F5E76FF070
:1054A0008500F2E76FF08500EFE7384B1F68BB68B7
:1054B0005B6802AA0C2138469847002851D1DDF8D4
:1054C00008A0039EB1004FEA8A0341EA9A7213EBE7
:1054D0000A0346EB0202D10041EA5371D800B0EB57
:1054E0000A0361EB0602110141EA1371180110EB86
:1054F0000A0441EB06056B0143EAD46362011446DA
:105500001D461F4A002320462946FBF749FE8146D7
:105510004FF0FF321B4BAB4208BFA24224D3A8FB83
:105520000AAB08FB06BB164A002350465946FBF758
:1055300037FE03464FF0FF301249594508BF50452A
:1055400015D3BA681468002200924A460C213846E6
:10555000A04700283FF442AF45210D4836F068FED1
:105560003CE76FF00400F4E76FF08500F1E76FF0BF
:105570008500EEE781808080B07D0400BC4600207D
:1055800040420F003F420F00747D0400C0460020DF
:10559000907D040010B586B002460C46ADF80E00B2
:1055A0004921174836F044FE002301930DF10E0205
:1055B00000920122082120463BF03CFCBDF80E3051
:1055C0008BB98DF8173001930DF11702009201226B
:1055D000062120463BF02EFC21469DF80E00FFF7E9
:1055E000E9FE06B010BD01228DF8172000230193BB
:1055F0000DF117010091062120463BF01BFCEBE763
:10560000D87D040010B584B002460C468DF80F001A
:1056100049210E4836F00CFE002301930DF10F02D4
:1056200000920122062120463BF004FC9DF80F3039
:105630003BB12146064B93F88600FFF7ABFF04B061
:1056400010BD21460020FFF7B5FEF8E7F47D040009
:1056500010280020F8B50546342140F009FE044624
:1056600046780378294A4921294836F0E1FD324637
:105670004921284836F0DCFD002363602A46492191
:10568000254836F0D5FD237863B1072B35D1314657
:10569000207AFFF77FFF63681C4A49211F4836F0D4
:1056A000C7FDF8BD49211E4836F0C2FD227AA57A11
:1056B000062A06D0082A13D049211A4836F0B8FD28
:1056C000E9E7277B3A464921174836F0B1FD002D1E
:1056D000E1D13146381E18BF0120FFF793FFDAE70A
:1056E000A7893A464921114836F0A2FD002DD2D1B2
:1056F00031463846FFF74EFFCDE7284609F0E6FC75
:105700000028C8D14FF0FF336360C4E73480040041
:10571000107E0400207E04003C7E0400007F040014
:10572000587E0400D87E0400847E0400AC7E040011
:1057300030B583B0044608F049FE10B99CB903B0F7
:1057400030BD4542284612F01BFA034640F2CA22F9
:105750000192074A00922A464521064836F068FD24
:1057600004203FF0CFFA204628F09EFEE7E700BF76
:10577000547C0400387C040010B54921224836F0DE
:1057800057FDFFF79BFD02F033FB90BB49211F48FB
:1057900036F04EFD14F082F91D4BC0F89C304921C3
:1057A0001C4836F045FD1C481DF078FEFFF7A4FDAF
:1057B0001A4C0A2194F88600FFF7ECFE0B2194F8AE
:1057C0008600FFF7E7FE94F886204921144836F05A
:1057D0002FFD09F071FC4921124836F029FD37F000
:1057E0007CF958B90AF056F949210F4836F020FDE6
:1057F000FEE745210D4836F01BFDC7E745210C4863
:1058000036F016FDEEE700BF147F0400607F040051
:1058100055560000787F0400400600201028002024
:10582000947F0400CC7F0400088004003C7F0400C7
:10583000E87F040030B4002494420FD20B5D434053
:105840001809074D285680EA0310C3B2C0F30310AD
:10585000285680EA0310C0B20134EDE730BC70472F
:105860004480040070B504460D46436803F003030A
:105870008160022B13D0032B0ED0012B12D00E4EC1
:10588000452231460D4836F0EBF84521304636F0DA
:10589000C7FC0026304607E00668002004E00068E8
:1058A000002601E0002630460023636010B129463F
:1058B0001CF04AFD304670BD54800400788004001E
:1058C00008B50B6801330B60014B1B68984708BD96
:1058D00030080020014B1860704700BF30080020DE
:1058E00000B583B002460B460021019101A903488F
:1058F00000F0CAFF03B05DF804FB00BFC158000010
:1059000010B584B00446019002910021039101A9D1
:10591000054800F0B9FF039B029A934201DA002286
:10592000E254039804B010BD2FBA030038B5044602
:105930000D46838B002A13DB03F007035A1F012A4D
:105940001AD9042B4DD02D4C40F21B1221462C4865
:1059500036F086F840F21B11204636F061FC38BD67
:10596000D0E9000185E80300002323606360012182
:10597000204636F091F8F2E7D0E9000185E803000F
:10598000002222606260062B0FD0052B1CD1002163
:10599000204636F081F8204636F0A5F80028DED003
:1059A000A38B43F02003A383D9E72B683BB1E28BA1
:1059B0000132E283002BF9D01B68002BF6D10221C3
:1059C000204636F069F8E6E70C4D40F20912294608
:1059D0000B4836F045F840F20911284636F020FC15
:1059E000D5E7002136F058F8204636F07CF800283C
:1059F000B5D0A38B43F02003A383B0E790800400CD
:105A0000788004002DE9F04F83B004461646838B5E
:105A100003F0070703F008080D4631B1B8F1000F95
:105A200011D1002300930193A7E0DFF8149340F213
:105A300033124946C14836F013F840F23311484654
:105A400036F0EEFBEAE7012D13D0022D16D1A38B21
:105A500043F02003A38304F1140018F05FFF002833
:105A600000F0768186F31188BFF36F8F03B0BDE835
:105A7000F08FA38B43F01003A383ECE7B04D4FF4FA
:105A80009E722946AD4835F0EBFF4FF49E712846D3
:105A900036F0C6FBDBE7204636F025F805466EE01B
:105AA000D4F818904A4669462046FFF73FFF002584
:105AB00010E0002F7FD12368002B00F0898023693C
:105AC0001D68002D00F091800621204635F0E4FF8E
:105AD0004FF00009A38B03F00708B84500F00081E0
:105AE000A268002A00F0FE80012217461AB9009A27
:105AF000002A00F0F98043F00803A38304F1140A9C
:105B0000504618F00BFF002800F0F28086F3118851
:105B1000BFF36F8F002F40F0F780009B2BB14B46F7
:105B200042466946204636F020F815B185492046A0
:105B3000A8474FF04003EFF3118683F31188BFF3BA
:105B40006F8F504618F0DAFE002800F0E3805046D0
:105B500018F0F4FEA38B23F00803A383A38B13F0A8
:105B6000100F00F0E28023F01003A3830125A78B20
:105B700007F00707002D3FF46EAF022D8BD0002DEC
:105B80003FF469AF012D8BD0032D92D0042D3AD074
:105B9000052D40F09680012F6BD12368002B75D026
:105BA00023699D68002D7ED00521204635F074FFC5
:105BB0004FF000098EE7624D4FF4AB7229465F4803
:105BC00035F04EFF4FF4AB71284636F029FB72E7F3
:105BD0005B4D40F257122946584835F041FF40F2DC
:105BE0005711284636F01CFB69E7DFF854814FF463
:105BF000AD724146514835F033FF4FF4AD71404628
:105C000036F00EFB60E7022F0BD1E38BB3B92369AB
:105C10005D6805B30421204635F03EFF4FF00009D2
:105C200058E7474D40F25D122946444835F018FFC9
:105C300040F25D11284636F0F3FAE6E7404D4FF4A6
:105C4000AF7229463D4835F00BFF4FF4AF7128463F
:105C500036F0E6FADBE7DFF8E88040F26112414611
:105C6000364835F0FDFE40F26111404636F0D8FA74
:105C7000D0E7334D4FF4B2722946304835F0F0FE8C
:105C80004FF4B271284636F0CBFA86E72C4D40F23D
:105C900065122946294835F0E3FE40F26511284691
:105CA00036F0BEFA7CE7DFF898804FF4B4724146D4
:105CB000224835F0D5FE4FF4B471404636F0B0FAC4
:105CC00072E71F4D40F26B1229461C4835F0C8FEA2
:105CD00040F26B11284636F0A3FA0025A946F9E6F2
:105CE000002202E7002200E7002D7FF404AF35E731
:105CF000DFF854B0AC225946104835F0B1FEAC2163
:105D0000584636F08DFA01E74A464146204635F0BE
:105D1000CBFE02E70C4D81222946084835F0A0FE53
:105D20008121284636F07CFA11E713F0200F0DD0C0
:105D300023F02003A383022519E700BF7880040025
:105D400090800400715D0000B480040000250EE71F
:105D5000054CAC222146054835F082FEAC21204698
:105D600036F05EFA7EE600BFB4800400788004005E
:105D70002DE9F04104460D4600F114064FF04003B2
:105D8000EFF3118783F31188BFF36F8F304618F05C
:105D9000B5FD50B1304618F0D1FDA5613A4601215C
:105DA0002046FFF72FFEBDE8F081DFF81C8081223E
:105DB0004146044835F054FE8121404636F030FA21
:105DC000E8E700BF78800400B48004002DE9F047C4
:105DD0000446884635F0A0FE061E53DB04F1140786
:105DE0004FF04003EFF3118983F31188BFF36F8FF6
:105DF000384618F083FDE8B1384618F09FFDA58BB2
:105E000005F00705E38B4FF6FF72934250D02E4604
:105E1000022D1AD005B3042D1ED0062D1CD0052D41
:105E20004DD0012D31D16FF004064FF0000A5346DA
:105E3000524617E0364D81222946364835F010FE8D
:105E40008121284636F0ECF9D6E70133E3834FF0A1
:105E5000010A00231A4605E0B5FA85F35B094FF005
:105E6000000A012242B10022C8F8002062686AB329
:105E7000C2F80080C4F804806BB34A460221204671
:105E8000FFF7C0FD3046BDE8F087234E40F2C9124F
:105E90003146204835F0E4FD40F2C911304636F075
:105EA000BFF96FF004064FF0000A53465246D9E797
:105EB0006FF00A064FF0000A53465246D2E76FF0E1
:105EC00085064FF0000A53465246CBE7C4F80480DB
:105ED000C4F80080D0E7384618F020FD68B189F397
:105EE0001188BFF36F8FBAF1000FCBD000232A4681
:105EF0004146204635F026FEC4E7054FAC22394620
:105F0000044835F0ADFDAC21384636F089F9E6E7B6
:105F1000B480040078800400908004002DE9F041F2
:105F2000044600F114054FF04003EFF3118683F3AC
:105F30001188BFF36F8F284618F0E0FC68B128463F
:105F400018F0FCFCA38B03F007031F46022B12D0B2
:105F5000012B0DD06FF0850714E01F4F81223946C9
:105F60001E4835F07DFD8121384636F059F9E6E7C7
:105F70006FF0040706E0E38B7BB1E38B013B9BB240
:105F8000E383C3B1284618F0C9FCD0B186F3118869
:105F9000BFF36F8F3846BDE8F081DFF844804FF4DF
:105FA000F87241460D4835F05BFD4FF4F8714046FC
:105FB00036F036F9E1E7324602212046FFF722FDAE
:105FC000E8E7054CAC222146044835F049FDAC21F8
:105FD000204636F025F9D9E7B48004007880040023
:105FE000908004002DE9F84300286FD00E468146CA
:105FF00000296ED000F114084FF04003EFF3118731
:1060000083F31188BFF36F8F404618F077FC88B197
:10601000404618F093FCB9F81C5005F007053446CB
:10602000D9F800300022002B38D09C420DD01A46FF
:106030001B68F8E7284C81222146284835F010FDDE
:106040008121204636F0ECF8E2E7D2B133681360E4
:10605000D9F804309E421ED000233360062D1FD095
:10606000042D1DD0052D1BD01D4C40F22E222146A3
:106070001A4835F0F5FC40F22E21204636F0D0F8D3
:106080000EE03368C9F80030D9F804209642E3D115
:10609000C9F80430E0E7C9F80420DDE76FF07705C0
:1060A000404618F03BFC30B187F31188BFF36F8F87
:1060B0002846BDE8F883084CAC222146074835F055
:1060C000CFFCAC21204636F0ABF8EDE76FF01505BC
:1060D000EEE76FF01505EBE7B4800400788004006C
:1060E0009080040000294DD0F8B50468204635F0B2
:1060F0006BFE054604EBC006A368B3F5004F1FD343
:10610000736813F0010F1DD0A268B2F5004F24D3BD
:10611000736805EB5303B2F5004F20D354F83320D6
:106120009B1A9D421ED1A368B3F5004F25D3736817
:1061300023F0010373602946204635F0A2FEF8BD26
:106140007388DEE7104F9A223946104835F088FCF4
:106150009A21384636F064F8D6E77388D9E734F8E0
:106160003320DDE7084FA2223946084835F078FC95
:10617000A221384636F054F8D5E7738823F001039E
:106180007380D8E7704700BFDC800400788004008B
:106190002DE9F8430C46154606684B4203EA010810
:1061A00031EA030351D0A1EB0804B368B3F5004F03
:1061B00049D30827B84500D24746631E234255D12C
:1061C000002D7ED0B368B3EBD50F7CD96119C91B04
:1061D000B3F5004F58D3082319440731C908304696
:1061E00035F0AAFE074600286FD00146304635F04C
:1061F000F9FC40442044013864420440A4EB080404
:106200002544073525F007052146304635F0DCFDED
:106210008046AD1BED10874238D306EBC807B36844
:10622000B3F5004F3CD37B6808EB53039D4239D351
:10623000B368B3F5004F3FD37B6843F001037B6045
:106240002046BDE8F8830427B4E7B368B3F5004FF0
:1062500005D30827BC4204D94FF00008ADE7042756
:10626000F8E7294635F0B7FE0446E9E7DFF8649021
:1062700040F20D124946164835F0F2FB40F20D117E
:10628000484635F0CDFF9BE70423A5E70246394693
:10629000304635F02FFD3946304635F0C9FDBCE7B4
:1062A0007B88C1E72A464146304635F023FD294622
:1062B000304635F0BDFDBBE77B8843F001037B80B2
:1062C000BEE70024BCE70024BAE70024B8E700BF1B
:1062D00078800400DC8004002DE9F84F06460D4666
:1062E0001446B2F5802F33D30827BC4232D9E21BC3
:1062F000EC1D24F00704154425F007052D1B4FEA7B
:10630000D509172D34D9A0463460C4F8089000236D
:10631000E360B9F5004F38D308230833A9EBD3065F
:106320000136B6FA86F6C6F12007C6F12406B60095
:1063300007364FEAD60A0AEBD3034B4527D800238A
:10634000BB4232DA1A1D002148F822100133F7E768
:106350000427CAE7DFF808814FF4C17241463F487D
:1063600035F07EFB4FF4C171404635F059FFBEE772
:106370003B4F40F28B123946384835F071FB40F202
:106380008B11384635F04CFFBDE70423C5E7DFF835
:10639000D0B04FF4CB725946304835F061FB4FF422
:1063A000CB71584635F03CFFC9E74FEA4A03A16874
:1063B000B1F5004F38D36360B1F5004F36D30023F9
:1063C0002360B1F5004F34D3636843F00103636089
:1063D000A9EB0A00420026F00706A319B1F5004F09
:1063E0002CD35A60A368B3F5004F29D344F806A014
:1063F00025F007032544A268B2F5004F23D30022FD
:106400006A60A268B2F5004F20D3E050A368B3F5EC
:10641000004F1DD36B6843F001036B60514620466B
:1064200035F006FDBDE8F88F6380C5E700232380C3
:10643000C7E7638843F001036380C9E75A80D1E767
:1064400024F806A0D4E700226A80DAE7E052DDE70C
:106450006B8843F001036B80E0E700BF78800400A5
:10646000DC8004002DE9F04F89B092461D460028DB
:1064700071F1000308DB9AF8003013F0080F14D014
:106480002B23129A137002E02D23129A13709AF89C
:1064900003B0C1F30A540246C1F3130364B952EACC
:1064A000030130D14FF0000E08E013F0100FEED0D2
:1064B0002023129A1370EAE74FF0000E40F2FF71AA
:1064C0008C4223D0BBF1460F5CD04FEAC32C4CEA80
:1064D000525CD2022CF0004C0692CDF81CC044EA6B
:1064E0000200E31743EA0C0150EA010308D0BEF1B1
:1064F000000F4BD1A4F2FE34079B43F000430793F7
:106500004FF000085DE04FF0010ED7E7134320D1B4
:10651000ABF1410BBBF1190F11D84923139A13703A
:106520004E2353700332462313998B709AF8003030
:106530006FF386138AF80030149B1A608DE169238B
:10654000139A13706E2353700332662313998B7062
:10655000ECE7ABF1410BBBF1190F09D84E23139AAD
:106560001370412213994A700A4603328B70DDE79B
:106570006E23139A1370612213994A700A460332EC
:106580008B70D3E74FF0660B9FE7013C069B079AA1
:1065900013EB030842EB0209CDE90689B8F1000FBD
:1065A00079F10003F1DAA5E74FEA820C98004CEA92
:1065B0009374C31844EB0202069307928C1C08F1F3
:1065C000FF3814F1020F26DA0799069B5B0843EAAD
:1065D000C1734A080693079221460134B2F1333F52
:1065E000F2D2E1E7069B0233079A42F100020693DA
:1065F000079206A835F04AFD013C08F10108069B08
:10660000079ADE1842EB0207CDE90667013C002E2F
:1066100077F10003F3DA002CE4DCC4F10401079AFB
:106620001C34A1F12000069BCB4002FA04F4234362
:1066300022FA00F00343CA4006930792BBF1670FAA
:1066400012D0BBF1470F0FD00027BBF1660F29D046
:106650006C1C102305939C4200DD1C4600224FF069
:106660000063CDE9022328E018F1030F01DBA84500
:1066700011DDABF1020B5FFA8BFB002D00DD013D5C
:106680009AF80030C3F3401713F0200F08D1002D03
:10669000DBDD0127D9E7A5EB08054FF0660BEFE737
:1066A0000027D2E718EB0504D3D510230593002467
:1066B000D4E702A835F008FD3446661E002CF8D158
:1066C000069B029A9B180093079A039B42EB0303D5
:1066D0000193DDE90023CDE90623B3F1805F08BF14
:1066E000002A07D2BBF1660F45D1B8F1000F3DDD9E
:1066F000139E0DE006A835F0E7FC08F10108F1E76C
:1067000005A906A835F0ECFC06F8010B08F1FF38E6
:10671000B8F1000F02DD059B002BF1DCCAF8048004
:10672000A0469AF8003013F0200F01D1002D02DDB1
:106730002E2306F8013BB8F1000F3BDA002D39DDBE
:10674000C8F10003CAF804309D4201DACAF80450C7
:10675000DAF80430ED1A002BD4BF002301239AF895
:10676000022063F345128AF8022023E0139E3023AF
:1067700006F8013BD5E705A906A835F0B1FC139E44
:1067800006F8010B302801D008F1FF389AF80030E4
:1067900013F0200F01D1002D0CDD139B9E1C2E2326
:1067A000139A537006E005A906A835F099FC06F87F
:1067B000010B013D002D02DD059B002BF3DCCAF827
:1067C000085057B10023CAF8083033461E4613F864
:1067D000012D302AFAD02E2A43D0BBF1650F02D00A
:1067E000BBF1450F2AD186F800B0B8F1000F3ADBB3
:1067F000B21C2B237370B8F1630F0DDD204981FBB0
:1068000008314FEAE873C3EB611303F1300102F87A
:10681000011B642101FB13881A4981FB08314FEAEF
:10682000E873C3EBA10303F13001164606F8021B1F
:1068300003EB8303A8EB430330335370DAF80430DF
:10684000002B16DD01249AF8023064F386138AF8CF
:106850000230149B1E6000233370139809B0BDE80A
:10686000F08F1E46B9E7C8F10008B21C2D237370E3
:10687000C1E7DAF80830002BE5DD0124E3E700BFCB
:106880001F85EB51676666662DE9F04F99B00646A5
:106890000D4617460593002400E00134387800289F
:1068A00000F09185252807D001372946B0470028F8
:1068B000F3DA19B0BDE8F08F00230A930B930F931E
:1068C0000DF15D0208928DF81F300C930D930E931D
:1068D00007F101097B78252B02D04FF0010831E048
:1068E00007F102098DF83330AEE19DF8303043F006
:1068F00004038DF83030B8F1000F20D009F1010900
:106900001DE09DF8303043F008038DF83030F2E799
:106910009DF8303043F010038DF83030EBE79DF8F0
:10692000303043F020038DF83030E4E79DF830300C
:1069300043F040038DF83030DDE74FF00008B8F148
:10694000000F29D099F80030203B102BF5D801A278
:1069500052F823F0116900003B6900003B69000018
:106960001F6900003B6900003B6900003B690000B3
:106970003B6900003B6900003B6900003B69000087
:10698000036900003B690000EB6800003B69000000
:106990003B6900002D6900009DF8303003F044038E
:1069A000442B6DD0CDF824909DF8303043F0800317
:1069B0008DF8303099F800302A2B68D009A835F0CE
:1069C00051FB099B994512D09DF8303043F080036C
:1069D0008DF830300D90C3F34003002860DB0022B7
:1069E00013439DF8302063F341028DF83020099B5A
:1069F00009931B782E2B14BF002301239DF831200F
:106A000063F341028DF83120002B4BD0099B5A1CB7
:106A100009925B782A2B48D009A835F023FB0E9009
:106A20009DF83030C3F34003002847DB00221343B6
:106A30009DF8302063F341028DF83020DDF824907A
:106A400099F800304C3B2E2B00F2DC80DFE803F09D
:106A5000CADADADADADADADADADADADADADADADAA6
:106A6000DADADADADADADADADADADADA38DA6ADA98
:106A700051DADADADADADADAC0DADADADADAB60017
:106A80009DF830306FF386138DF830308AE79DF82B
:106A9000313043F001038DF831304B460133A7E725
:106AA00001229DE7DDF82490CAE79DF8313043F0DC
:106AB00004038DF8313002F10109C1E70122B6E784
:106AC00009F1010299F80130682B08D09DF83130A6
:106AD000022161F3C6038DF8313091462BE09DF819
