:020000040000FA
:1000000000910020858F0000EBCB0300D98F00000A
:10001000D98F0000D98F0000D98F000000000000A8
:100020000000000000000000000000002D8B000018
:10003000D98F000000000000998A0000F9850000B7
:10004000458F00008FE80300458F0000458F0000BA
:10005000458F0000458F0000458F0000458F000050
:1000600057E80300458F0000458F000075E8030046
:10007000458F0000458F0000458F0000458F000030
:10008000458F0000458F0000458F0000458F000020
:10009000458F0000458F0000458F0000458F000010
:1000A000458F0000458F0000458F0000458F000000
:1000B000458F0000458F0000458F0000458F0000F0
:1000C000458F0000458F0000458F0000458F0000E0
:1000D000458F0000458F0000458F0000458F0000D0
:1000E000458F0000458F0000458F0000458F0000C0
:1000F000458F0000458F0000458F0000458F0000B0
:100100007BB972B90029BEBF00204FF0004106E064
:1001100008BF00281CBF6FF000414FF0FF3000F017
:10012000B9B9ADF1080C6DE904CE002909DB002B4B
:100130001ADB00F04DF8DDF804E0DDE9022304B03D
:100140007047404261EB4101002B1BDB00F040F89F
:10015000DDF804E0DDE9022304B0404261EB410137
:10016000524263EB43037047524263EB430300F098
:100170002FF8DDF804E0DDE9022304B0404261EB32
:1001800041017047524263EB430300F021F8DDF870
:1001900004E0DDE9022304B0524263EB43037047FD
:1001A00053B94AB9002908BF00281CBF4FF0FF31DE
:1001B0004FF0FF3000F06EB9ADF1080C6DE904CEE0
:1001C00000F006F8DDF804E0DDE9022304B0704732
:1001D0002DE9F047089D04468C46002B40F08380B3
:1001E0008A42174647D9B2FA82F242B1C2F12000E0
:1001F00024FA00F09140974040EA010C94404FEA05
:100200001748230CBCFBF8F61FFA87FE08FB16C143
:1002100043EA014306FB0EF1994209D9FB1806F1A6
:10022000FF3080F01981994240F21681023E3B4432
:100230005B1AA4B2B3FBF8F008FB103344EA0344A2
:1002400000FB0EFEA64509D93C1900F1FF3380F0F2
:100250000581A64540F2028102383C4440EA06404E
:10026000A4EB0E0400261DB1D4400023C5E90043D1
:100270003146BDE8F08702B9FFDEB2FA82F2002A09
:1002800050D1CB1B4FEA174E1FFA87F80126B3FB5C
:10029000FEFC210C0EFB1C3341EA034108FB0CF36E
:1002A0008B4207D979180CF1FF3002D28B4200F251
:1002B000E9808446C91AA3B2B1FBFEF00EFB10110F
:1002C00043EA014408FB00F8A04507D93C1900F1B6
:1002D000FF3302D2A04500F2D9801846A4EB0804EF
:1002E00040EA0C40BFE78B4209D9002D00F0B180F5
:1002F0000026C5E9000130463146BDE8F087B3FA73
:1003000083F6002E4AD18B4202D3824200F2B8809B
:10031000841A61EB030101208C46002DA8D0C5E9A9
:10032000004CA5E7C2F1200320FA03F6974001FA3A
:1003300002F04FEA174ED9403043030CB1FBFEF6F2
:100340001FFA87F80EFB161143EA014306FB08F17A
:10035000994204FA02F409D9FB1806F1FF3C80F037
:100360008D80994240F28A80023E3B445B1A81B202
:10037000B3FBFEF00EFB103341EA034100FB08F330
:100380008B4207D9791800F1FF3C73D28B4271D9A7
:1003900002383944CB1A40EA064678E7C6F1200C09
:1003A00003FA06F422FA0CF31C4320FA0CF701FAC4
:1003B00006F34FEA144E21FA0CF11F433B0CB1FB3C
:1003C000FEF91FFA84F80EFB191143EA014109FBFB
:1003D00008FA8A4502FA06F200FA06F308D961180B
:1003E00009F1FF3048D28A4546D9A9F102092144D2
:1003F000A1EB0A01BFB2B1FBFEF00EFB101147EA00
:10040000014700FB08F8B84507D9E71900F1FF31AB
:100410002ED2B8452CD90238274440EA0940A7EB30
:100420000807A0FB02894F45C64649461AD317D094
:100430005DB1B3EB0E0267EB010707FA0CFCF2406B
:100440004CEA0202F740C5E9002700263146BDE824
:10045000F0872E4628460BE70646E9E61846FDE6F5
:100460004345E5D2B8EB020E69EB04010138DFE742
:100470000846D2E760468DE78146B9E7664675E7EC
:1004800030464AE7ACF1020C394413E702383C44E9
:1004900024E700BF704700BFF8B515460A4A1C465E
:1004A00056682EB101B02A46B446BDE8F040604718
:1004B00000208DF80000684603F0B4FD9DF80000B0
:1004C000281A20700020F8BD00000020002819D054
:1004D00003781349134A13B1012B0ED011E00379AD
:1004E000012B00D06BB943790BB1012B09D1836883
:1004F000643B8B4205D2C0680EE00379012B02D029
:100500000BB10020704743790BB1012BF9D1C368BF
:10051000643B8B42F5D280689042F2D8012070474C
:100520003D860100FF1FA10710B5054C206810B1E2
:10053000804700202060BDE8104001F019BC000099
:10054000080000202DE9F0410E46050004D000F01F
:1005500045F8074600240AE06FF01500BDE8F08179
:10056000204600F041F8807838B1641CE4B2BC4207
:10057000F6D300BF6FF00B00F0E72746FF2CF9D051
:10058000204600F031F8044603F0EFFE27712146C3
:10059000074801F0C5FBE070202805D00120A560C8
:1005A000A07037700020D9E76FF02200D6E7000076
:1005B000CB40000010B5820702D06FF00D0010BDD7
:1005C000054A1170506028B101EBC1018A00002179
:1005D00004F001F9002010BD0C0000200148007853
:1005E000704700000C00002005490A78904201D3B2
:1005F00000207047496800EBC00001EB80007047A5
:100600000C00002070B50546202A27D019481A4C46
:1006100000EB831C0CEB420004EB8303202922D067
:100620000CEB410140784C784870204601460CEBB9
:100630004100914205704078F8D193F82220202A99
:100640001ABF0CEB4202547083F8214020220CEBBD
:10065000410C8CF8012083F8221070BD40F29121EA
:10066000702002F04FFD93F82040407883F820007E
:10067000DBE70000000D0020800D00202DE9FF4F7A
:100680000C46498987B001F5E1611546814200F2C7
:10069000DA8005AA02A901F013FD02980A9F2844F6
:1006A00020F07F400490A948A94E00EB87000390FA
:1006B00090F820502020E9460DF104088DF8000044
:1006C00006F5407A202D18BF0AEB871B26D000BF05
:1006D00005EB450006EBC0002168C268891A0902D3
:1006E000CA1701EB12610830091217D4618971B180
:1006F000418961B900F0B2FD01F0C6FC2168081A19
:100700000002C11700EB11600012332806DB0BEB6F
:10071000450089F800504578202DD9D199F800007E
:1007200088F80000A146202D1CBF8A4800EB871BDB
:1007300000F0088105EB450106EBC10AD9F8041069
:10074000DAF808204846511A0902CA1701EB12616B
:100750000AF10807091215D47989002900F0F280FE
:100760004189002940F0EE8000F078FD01F08CFC1A
:100770003968081A0002C11700EB11600012332813
:1007800080F2E08088F800509AF8141099F80C0074
:10079000814206D90BEB45004578202DCAD100F0E7
:1007A000D1B89DF8040000EB400006EBC005688A54
:1007B000EF6800283FD16089E8B3A86803F069FEBC
:1007C000698A2A7C1144491C634A4318904204D91F
:1007D00040F21661702002F095FC6048814204DD11
:1007E00040F21761702002F08DFC5D48814204DA0E
:1007F0004FF4C361702002F085FC5A489842DCBF78
:1008000003F5F703A3F1F85305DD002BBCBFA3F5F7
:10081000F70303F1F853184601F036FC20F07F404F
:10082000391A0902CA1701EB126109123329BCBF38
:10083000333020F07F470498381A0002C11700EBCC
:100840001160001203D40BB00020BDE8F08FD4E992
:100850000010401A384427F07F4120F07F40C4E95F
:1008600000100398DDF828806F4690F82050202073
:100870000DF1040A8DF80000202D1CBF354800EB57
:10088000881924D005EB450006EBC0002268C1683A
:10089000511A0902CA1701EB12610830091216D465
:1008A000618971B1418961B900F0D8FC01F0ECFBBC
:1008B0002168081A0002C11700EB116000123328EA
:1008C00005DB09EB45003D704578202DDAD13878FD
:1008D0008AF800002746202D1CBF1E4800EB881B0D
:1008E00030D005EB450106EBC1097968D9F808203D
:1008F0003846511A0902CA1701EB126109F10808BA
:10090000091212D4B8F80A10E1B14189D1B900F046
:10091000A5FC01F0B9FBD8F80010081A0002C117B5
:1009200000EB1160001233280CDA8AF8005099F8B5
:100930001400397B88427FF634AF0BEB45004578D5
:10094000202DCED10BB00120BDE8F08F800D00200E
:10095000000A0020000D0020FF7F841E0020A10758
:1009600000E05EF80080841E2DE9F05F04463C48FC
:100970000E4600EB86003B4F90F820502020984612
:100980009246107007F54079202D18BF09EB861BA1
:1009900028D000BF05EB450007EBC00000F10801BF
:1009A000C0682268101A0002C21700EB1260001221
:1009B00018D4608978B1488968B9084600F04EFCBF
:1009C00001F062FB2168081A0002C11700EB1160F8
:1009D0000012332806DB0BEB45008AF800504578FF
:1009E000202DD7D19AF8000088F80000202D18BFDC
:1009F00009EB861A30D005EB450107EBC1096168A8
:100A0000D9F808202046511A0902CA1701EB1261D1
:100A100009F10806091210D47189E9B14189D9B9DF
:100A200000F01CFC01F030FB3168081A0002C1170D
:100A300000EB1160001233280EDA88F8005099F8A4
:100A40001400217B884202D80020BDE8F09F0AEB09
:100A500045004578202DCED10120BDE8F09F000053
:100A6000800D0020000A00202DE9F74F4FF000080C
:100A700098B016460D46C34601F07EFD0446012D92
:100A800018BF022D05D040F693114FF0700002F010
:100A900039FBFD4901200860FC4989680860002095
:100AA0000C90401E0E90FA4906EB460001EBC00385
:100AB00008330FAF0FCB87E80F000FA800F0CEFB75
:100AC0000D90F348BDF84690B0F89C03ADF84C008B
:100AD000B9F1000F14BF4FF0010A4FF0000A0F9850
:100AE0001490BAF1000F09D0EA4890F82C0028B908
:100AF00002F0A4FA002808BF012700D00027E6482A
:100B00000022159200781646012818BF032840D10C
:100B1000E148B0F80280A8EB09001590C84538D923
:100B20000D996FEA0803DFF874E3C8180DF10C0C97
:100B300017AA714504D940F21661702002F0E2FA5A
:100B4000D7498B4204DD40F21761702002F0DAFAD7
:100B5000D4498B4204DA4FF4C361702002F0D2FA18
:100B6000D1498142DCBF00F5F700A0F1F85005DD66
:100B70000028BCBFA0F5F70000F1F850614601F075
:100B80009FFA03980F9920F07F400390081A20F0F5
:100B90007F42002F18BF322604D19DF84C00002858
:100BA00018BF0226B4F1807F08D00F98001B000206
:100BB000C11700EB11600012012802DA0420189915
:100BC0000BE047B1B34890F82D0020B19DF84C00E0
:100BD000061C18BF022621460120B9F1000F02D0E1
:100BE000159B1E2B02DA9DF84C3013B14FF0010B10
:100BF000401E8319A8489DF84DE0007815900F9885
:100C0000801A20F07F4CACEB01000002C61700EB0D
:100C100016600012984218DB002A18BFCDF83CC0BD
:100C20000F9E0597002701F0A1FB301A0002C117A3
:100C300000EB116000123E283FDA012D20D0701E1B
:100C4000059920F07F4019B32DE082B1BEF1000F6D
:100C500004BF159803280AD027B99DF84C00002836
:100C600018BF9B1E00228DF84C209046C7E707BB9B
:100C70009DF84C00E8B100208DF84C009B1EBEE7AB
:100C8000B4F1807F20D140F60C11702002F03AFAC6
:100C9000B4F1807F07D0211A0902CA1701EB126153
:100CA0000912042903DD044601F066FB0CE000296B
:100CB0000ADD1BB00020BDE8F08F701E20F07F44DD
:100CC000204601F059FB5746B4F1807F28D00F9899
:100CD000DDF840C0001B8BF00103744A20F07F4018
:100CE000ACEB040C2CF07F4C834298BFB0F5800F26
:100CF000DFD26245DDD3204603F0CBFB67490D9A76
:100D000001F1010C161AB6EB9C0F24BF831AB3EB4A
:100D10009C0F10D3B14208D2081A1044461C0AE0B6
:100D200040F62B21702002F0EDF999422CD2891A5D
:100D30000844401C46425748807F50B328464546E9
:100D40004FF0000BD846012805D0022001F05CFDD1
:100D5000012001F059FDA9452CD2A6EB05014FF069
:100D600001034FF003024FF0020001F085FC002860
:100D700008BF4FF00108B9F1000F35D00123A6EBF1
:100D800009010322184623E040F60B31702002F0DF
:100D9000B9F9C14534BF40464846BBF1000F14BF06
:100DA00000211E210844B042C8DB40F63E217020DD
:100DB00002F0A8F910D90123A6EB09010322184675
:100DC00001F05AFC28B37DB1711B012303220220DC
:100DD00001F052FCE8B107E055EA090004D040F602
:100DE0007611702002F08EF9012303223146002093
:100DF00001F042FC68B10125B8F1000F03D014984E
:100E00000F908DF84CB0DFF8A880BAF1000F0ED12A
:100E100009E0022001F0F8FC012001F0F5FC1BB014
:100E20000020BDE8F08F1B4890F82D0000B14FB3B3
:100E3000DFF860A09AF82C0018B101F0CDFF8AF815
:100E40002CB007B3A4F1320020F07F414FF4002012
:100E5000C8F8000000230322052001F00DFC68B350
:100E60004FF08044052001F0AFFD1249C1F8100594
:100E7000C1F814451049E0120860064C94F82D00A2
:100E8000E8B359E01BE01FE0080500401400002013
:100E9000000A0020800D002016000020FF7F841E25
:100EA0000020A10700E05EF80080841EFFFF3F00E5
:100EB00008F5014098F0014004F5014033E0DFF807
:100EC000B4A09AF82C0048B32A4C94F82D0050B1E5
:100ED0004FF40020C8F80000052001F095FC01F057
:100EE000E3FF84F82DB00DF13008234898E8FE1098
:100EF000C0F88013C0F88423C0F8883300E017E0FE
:100F0000C0F88C43C0F89053C0F89463C0F898734D
:100F1000C0F89CC31BB00120BDE8F08F01F078FF42
:100F20008AF82C508DE740F25131702002F0EAF837
:100F300001F0ACFF84F82D50A6EB0900A0F11901D7
:100F4000002904DC40F66821702002F0DBF803225F
:100F50000123104601F090FB38B108488068C0F8C2
:100F600000B00748C0F800B0BDE740F6732170201C
:100F700002F0C8F8800D0020000A002014000020B4
:100F8000080500402DE9F043064683B008789073C9
:100F9000CF7A5773887A10730889144650810D46AA
:100FA0000A785F4999464FEA810C4B42ACF101083F
:100FB0005AB1C043D5F8048004F1080288423DDDEF
:100FC00040F21761702002F09DF8EE686D686FEADC
:100FD000000904F1080206EB0900464504D940F275
:100FE0001661702002F08EF88945E9DC994528DB0E
:100FF0008445DCBF00F5F700A0F1F85005DD0028BE
:10100000BCBFA0F5F70000F1F850214601F058F8F8
:10101000206820F07F417019401C2160002F08BF1C
:101020007A3003D0012F08BF44302DD101F02CF8C5
:1010300020F07F40606003B0BDE8F0830146984235
:1010400004DA4FF4C361702002F05CF88445DCBF21
:10105000A1F1F450A0F5902005DD0028BCBF01F1FE
:10106000F45000F59020214601F02AF82068002F66
:1010700020F07F4108F10100216008BF7A3008D0DC
:10108000012F08BF443004D040F2BE61702002F04E
:1010900039F800F0F9FF20F07F416160608901AA12
:1010A000694601F00DF81F4890F82F10202923D031
:1010B0000069401D20F07F40D4E90021891A20609A
:1010C000084420F07F4060604B4632462146E86885
:1010D000FFF7D4FA00281CBF03B0BDE8F083D4E9C1
:1010E0000010401A304426F07F4120F07F40C4E9D0
:1010F000001003B0BDE8F083608906F1090720B154
:1011000001F09CFF002808BF32370748417800985B
:10111000814284BF081A074427F07F40CCE70000D3
:101120000020A107800D00201600002010B5154CEE
:1011300094F82F00202818BF10BD94F82E2004EB3F
:10114000820090F82010202917D0DFF83CC00CEB6B
:10115000821303EB41035B7880F82030012380F891
:10116000233084F82B3084F82F10022000F0B0F8E0
:10117000002084F82A00A07710BD40F29E31702034
:1011800001F0C0FF800D0020000D00202DE9F05F70
:10119000DFF8B88098F82E5008EB850090F82140D1
:1011A000202C08BFBDE8F09FDFF8A4B0DFF8A4A0B2
:1011B000AAF540790AEB8517072617F814000128CD
:1011C0000ED0042808BF02260AD005280CBF03262B
:1011D000062805D040F6D8014FF0700001F092FFCC
:1011E000BBF1000F18BFAFF30080EFF3108072B6B1
:1011F00007EB44014A7808EB850181F8212091F83A
:101200002220A24204BF202281F82220B8B12A461F
:101210002146012000F05CF804EB440109EBC10019
:1012200059F8312040683146904798F82E5008EB25
:10123000850090F82140202CBCD1BDE8F09F0648E5
:10124000002818BFAFF3008062B6E0E7800D0020F1
:1012500000000000000D00200000000010B5044652
:10126000006803F016F902466089217A144B08449D
:10127000411C50189A4204D940F21661702001F0C6
:1012800041FF104A914204DD40F21761702001F0E5
:1012900039FF0D4A914204DA4FF4C361702001F026
:1012A00031FF0A498142DEBF00F5F700A0F1F85096
:1012B00010BD0028BCBFA0F5F70000F1F85010BD2C
:1012C000FF7F841E0020A10700E05EF80080841EDE
:1012D000DFF854C010B500230CEB821C07281ED287
:1012E000DFE800F0050505050404040001230CF8FF
:1012F0001100002B08BF10BD0C4800EB820292F8D1
:10130000220020280EBF82F821100CEB4000417013
:1013100020200CEB4103587082F8221010BD40F2DF
:101320006721702001F0EEFE000D0020800D0020EE
:101330002DE9F34F83B05C48049900EB81000190E4
:1013400090F8204003982546012818BF022805D0B0
:1013500040F6AF214FF0700001F0D4FE0027202DA1
:101360004AD0514800910026807F002808BF0226FD
:1013700000F0FCFFDFF838A104EB44010AEBC101E7
:10138000DFF828918A68C968121A091A22F07F4288
:1013900021F07F41964298BFB2F5800F01D2894576
:1013A00028D2444A009902EB811B22460BEB4201F2
:1013B0004C78202C16D004EB44010AEBC10CDCF86D
:1013C0000880DCF80CC0A8EB000828F07F48ACEBE4
:1013D000000121F07F41464598BFB8F5800FE4D267
:1013E0008945E2D3202A05D020210420009BFFF765
:1013F00009F90446AC4215D12F48002818BFAFF3B5
:10140000008000F0B3FF284C94F8301020290DD054
:10141000E168821C511A0902CA1701EB1261091214
:10142000002903DD05B00020BDE8F08F202D0DD090
:101430002A460399FFF718FB58B3019880F82370E8
:1014400084F8305005B00120BDE8F08F94F82C00EE
:1014500018B101F0C1FC84F82C7094F82D0050B143
:1014600016494FF400200860052001F0CDF901F085
:101470001BFD84F82D70042001F0C6F901F02CFA50
:10148000202084F830000E48806807600D4807600F
:10149000D8E72A4620210420049BFFF7B3F805B0C3
:1014A0000020BDE8F08F0000800D0020FFFF3F000E
:1014B000000A0020000D00200000000008F5014097
:1014C00014000020080500402DE9F04F5B4E8146D6
:1014D00085B096F82F008A4620284DD096F82F0028
:1014E00006F10C0400EB4000A6F5607808EBC0079D
:1014F00020208DF8000096F82E0003AA06EB80004D
:1015000001A990F82050306902903068484400F0FA
:10151000D7FDF86801994A4A0844A9F1640191424B
:101520002FD8B968411A21F07F41B1F5800F28D238
:1015300020F07F406060304684F80CA090F82E00C8
:10154000EA46202D1CBF3F4901EB801B3CD005EB38
:10155000450008EBC0076068BA682146101A00020F
:10156000C21700EB126007F1080600121BD4708945
:1015700050B3488948B127E040F67331702001F03C
:10158000C1FD05B00120BDE8F08F2046FFF766FEE3
:1015900000F07AFD3168081A0002C11700EB1160F3
:1015A0000012332810DA8AF80050397D207B8142FE
:1015B00005D80298606005B00220BDE8F08F0BEB03
:1015C00045004578202DC2D1052001F01DF91B4CA6
:1015D0004FF0FF30A06094F82E309DF800202021BD
:1015E000202A13BF052004EB830090F82000FFF7AA
:1015F00009F894F82E20134901EB821194F82F205A
:1016000001EB42014870206848442060012084F8C2
:101610002B00607E012805D12069401E20F07F400C
:1016200000F044FF9DF80000202803D006484078D1
:1016300001F038FE05B00020BDE8F08F800D0020DD
:101640009C1FA107000D00201400002070B5234A44
:1016500092F82F10202939D092F82F10A2F560733C
:1016600001EB410103EBC10C92F82E1092F82E40D1
:1016700002EB810191F82010A2F1800505EB8414A2
:10168000202928D001EB410503EBC5052D7D8542BE
:1016900084BF04EB41014978F2D801EB410103EB2F
:1016A000C101DCF80C0089681468081A0002C1172F
:1016B00000EB1160001207D402F0EBFE04F16401AC
:1016C000884224BF001B70BD002070BD40F64C3125
:1016D000702001F017FD4FF0FF3070BD800D00202D
:1016E0000246144B10B508449A4204D940F21661E0
:1016F000702001F007FD104A914204DD40F21761AD
:10170000702001F0FFFC0D4A914204DA4FF4C361EE
:10171000702001F0F7FC0A498142DEBF00F5F700B6
:10172000A0F1F85010BD0028BCBFA0F5F70000F1F3
:10173000F85010BDFF7F841E0020A10700E05EF876
:101740000080841E074991F83020824204BF486817
:10175000704700EB4000044901EBC0000830FFF780
:101760007DBD0000800D0020000A00200E4910B54C
:1017700091F82F00202812D091F82F00A1F5607267
:1017800000EB400002EBC00091F82F10406801EB25
:10179000410152F83120BDE810400421104740F6C5
:1017A000BB01702001F0AEFC800D002070B56A4DC9
:1017B0006A49012605F5607408287DD2DFE800F04B
:1017C000046197A9C643AEB394F82C0018B901F090
:1017D0001FFB84F82C60E08A10B101F02FFC88B167
:1017E000FFF7A4FC84F82960A168B1F1FF3F05D0A0
:1017F00001230322052000F03FFF40B1607E012855
:1018000010D109E040F66F01702001F07BFC40F63A
:101810007401702001F076FC2069401E20F07F40AA
:1018200000F044FE94F82F0094F82F1000EB4000D5
:1018300005EBC000406801EB410155F83120BDE8DF
:10184000704001211047FFF771FC4FF0FF30A0609E
:1018500094F8290080B194F82F0094F82F1000EB31
:10186000400005EBC000406801EB410155F8312014
:10187000BDE870400621104740F68501702001F058
:1018800041FCFFF753FC84F8286001F0D7FB18B146
:1018900094F82C0028B108E040F69501702001F082
:1018A00031FC01F0B5FA84F82C6094F82D0068B191
:1018B0004FF400202A4900E048E00860052000F0CD
:1018C000A3FF01F0F1FA002084F82D0094F82F0016
:1018D00094F82F1000EB400005EBC000406801EBCE
:1018E000410155F83120BDE870400021104701F05A
:1018F0003DF8E08A10B101F0A1FB28B11948007849
:10190000032808BF667770BD4FF40A61702001F0AC
:10191000F9FB154806608868066070BD0878BDE868
:10192000704001F0BFBCFFF701FC94F82F0094F861
:101930002F1000EB400005EBC000406801EB4101B7
:1019400055F83120BDE870400521104740F6B3013D
:10195000702001F0D7FB0000000A002014000020D6
:1019600008F5014016000020080500402DE9F34F5E
:101970008246D1488BB00068D04DC005C00D0ED056
:10198000103840B20028B8BF00F00F0000F1E0208E
:10199000ACBF90F8000490F8140D40090DD00C98DD
:1019A0004FF0000B0078002818BF012818D040F233
:1019B0005C714FF0700001F0A5FB95F82F004FF01F
:1019C000010B202807D00C98007848B14FF4EB6148
:1019D000702001F097FB40F25571702001F092FBEE
:1019E000B74C24B1002140F25F70AFF30080B549DD
:1019F0000AEB4A0001EBC0004FF00108009024B14F
:101A0000002140F26770AFF30080B8F1000F09D0F9
:101A100095F82E604FF0000985F82B90BBF1000F70
:101A200007D02EE0A848002818BFAFF3008062B6A8
:101A3000EEE73746012020EA0706A448402200EBE3
:101A4000871100EB861002F04CFE24B1002140F219
:101A5000DA50AFF3008005EB870105EB8600096AD9
:101A6000016224B1002140F2DE50AFF3008024B1C6
:101A7000002140F27170AFF3008095F82B00002830
:101A8000BDD124B1002140F27B70AFF3008000F0A3
:101A90006DFC8046334606AA0C99FFF773FA24B111
:101AA000002140F28270AFF30080884906A801EB64
:101AB000861717F81A10012918BF02293ED1069976
:101AC000079BA1EB0801824A21F07F41A3EB0803A9
:101AD00023F07F4302296AD3B1F5800F67D29A427F
:101AE00065D34FF0010901AB05AA3146FEF73CFF73
:101AF000002864D09DF814109DF8042033468A42D3
:101B000061D00520FEF77EFD4FEA000107EB4A0099
:101B100041709DF81400202803BF05EB860080F873
:101B200020A080F8239007EB400018BF80F801A0A8
:101B3000324651465FF00300FFF7CAFB05EB860013
:101B400090F8237024B1002140F28970AFF3008037
:101B50006048002818BFAFF30080EFF3108872B61A
:101B600024B1002140F28F70AFF3008095F82B0074
:101B700000287FF444AF24B1002140F29770AFF306
:101B800000800DF1180E00989EE80E1000F108007C
:101B9000B9F1000F80E80E1042D024B1002140F2CC
:101BA000A470AFF30080BBF1000F2BD115E03246DB
:101BB00051460420FFF78CFB4FF00109BEE7324687
:101BC00051460420B8E7202919BF07EB41004178AE
:101BD00005EB860090F8201098E79FB195F82F004C
:101BE00020280FD124B1002140F2A970AFF300806A
:101BF00031460220FFF79CFB20B90C980078E8B32F
:101C0000012849D024B1002140F2C670AFF3008012
:101C100085F82E60012085F82B0000BF4FF00109E8
:101C200024B1002140F2CF70AFF30080B8F1000F73
:101C30003BD024B1002140F2D370AFF30080B9F162
:101C4000000F11D095F82E0005EB800090F82100D0
:101C5000202809D024B1002140F2DA70AFF30080CF
:101C60001D48407801F01EFB24B1002140F2DF70D6
:101C7000AFF300800DB04846BDE8F08FFFE724B118
:101C8000002140F2B170AFF3008095F82E2051464C
:101C90000420FFF71DFBC1E7002C3FF4B0AE00218C
:101CA00040F2BC70AFF30080A9E60748002818BFD7
:101CB000AFF3008062B6BCE704ED00E0800D0020C9
:101CC00000000000000A002000000000000D0020BD
:101CD000FFFF3F00000000001400002010B5202886
:101CE00011D20E4991F82E30A1F1800202EB831C33
:101CF0001CF810303BB191F82E3002EB831212F831
:101D00001020012A01D0002010BD91F82E2001469C
:101D10000020FFF7DDFA012010BD0000800D00203B
:101D200070B50D46064601F077F90F4890F82E2061
:101D30000024803800EB821010F8141029B1611CC7
:101D4000CCB2202CF8D3202070BD084804EB44010D
:101D500040F8316000EBC100214645600120FFF7EB
:101D6000B7FA204670BD0000800D0020000A002058
:101D70002DE9F04F83B000F0F9FA054600F0ACFD14
:101D8000634CA068B0F1FF3F1CBF4FF0FF30A06074
:101D9000A07FDFF880B1A8B9D4E90301081A0002D6
:101DA000C11700EB116000124FF40C7102F09EFBA2
:101DB00021690844281A0002C11700EB11600012C3
:101DC000C00F0BD0607EE8B100F0DCFB94F82A0075
:101DD000F0B140F25441702001F094F994F82F00D2
:101DE00094F82F1000EB40000BEBC000406801EBB3
:101DF00041015BF831200821904740F243417020B7
:101E000001F080F9E81C20F07F4000F0B5FADDE732
:101E10004FF0010A84F82AA094F82F00202824D03B
:101E200094F82F80202084F82F0084F830000026BA
:101E300084F8286084F829603748266000780228F2
:101E400016BF032801200020207794F82E7004EBA1
:101E5000870999F82000202831D000EB40000BEBD7
:101E6000C000817D012905D029E040F25741702052
:101E700001F048F9AB4600F10805408A01AA69461D
:101E800000F01EF994F82F00202804D02069401D8E
:101E900020F07F400BE068890BF1090B28B101F0BD
:101EA000CDF8002808BF0BF1320B2BF07F40D5E9AD
:101EB0000021891A2860084420F07F406860394674
:101EC0000120FFF735FA0028F9D0144800EB8710FD
:101ED00010F81800022804D13A4641460620FFF7C0
:101EE000F7F984F82BA099F82100202803D00C489A
:101EF000407801F0D7F9207F002804BF03B0BDE887
:101F0000F08F00F033FD2677667703B0BDE8F08FE1
:101F1000800D0020000A002016000020000D002087
:101F20001400002010B5304C82B094F82F102029F6
:101F300008D0A168B1F1FF3F09D040F6E821702038
:101F400001F0E0F840F6E721702001F0DBF862686C
:101F50000146264B50189A4204D940F2166170206F
:101F600001F0D0F8224A914204DD40F2176170205E
:101F700001F0C8F81F4A914204DA4FF4C36170209F
:101F800001F0C0F81C498142DCBF00F5F700A0F168
:101F9000F85005DD0028BCBFA0F5F70000F1F850AF
:101FA00001AA694600F08CF89DF804000F288CBF48
:101FB000012000200099084420F07F41A16094F89E
:101FC0002900002804BF02B010BD01230322052010
:101FD00000F052FB00281CBF02B010BD4FF42F616F
:101FE000702001F08FF80000800D0020FF7F841E1C
:101FF0000020A10700E05EF80080841E70B51E4C32
:10200000202184F8201084F8211084F82210002068
:1020100084F8230084F82E0084F82F10421EA2605A
:102020002060A07784F8280084F829002077607762
:1020300084F83010114984F82C0084F82D000870C1
:1020400048704880A4F182011022887001F8040FC2
:10205000521EFAD10A4D012684F82A60FF2028700A
:10206000084801F001F9687001F05CF9A86000F01F
:10207000C5FC84F8316070BD800D00201600002082
:10208000140000208D110000410B48F237625143CB
:102090000A0C094B510202FB03020848504300F5A9
:1020A00086306E30400D5B4210FB03F3B2EB532FD2
:1020B00088BF491C08447047F7C2FFFF6F0C01003E
:1020C000430B48F2376C03FB0CF330B41B0CDFF806
:1020D00044C05C0203FB0C030F4858434FEA505CBA
:1020E00004EB0C0043F609541CFB04F404F5807C5B
:1020F00043F60855A3EB5C2C2C440CF0FF0CB3EB1F
:10210000542F84BF4FF0000C401C086082F800C0C0
:1021100030BC7047F7C2FFFF6F0C01002DE9F041A2
:10212000384CD4F80403DFF8E08010F4803F4FF41B
:1021300000664FF0E0274FF000051CBFD4F84001C7
:10214000002817D0C4F84051C7F880622F480068B3
:10215000D8F80010A0EB010020F07F40022802D345
:10216000B0F5800F06D34FF48030C4F80803042084
:10217000FFF71CFBD4F8040310F4003F1CBFD4F895
:102180004401002817D0C4F84451C7F880622048A1
:102190000068D8F80010A0EB010020F07F40022872
:1021A00002D3B0F5800F06D34FF40030C4F8080313
:1021B0000520FFF7FBFAD4F8040310F4802F1ABFB0
:1021C000D4F848010028BDE8F081C4F84851C7F8A8
:1021D000806210480068D8F80010A0EB010020F0E1
:1021E0007F40022804D3B0F5800F38BFBDE8F081EE
:1021F0004FF48020C4F80803BDE8F0410620FFF743
:10220000D5BA000000B0004004B5004040B5004021
:1022100044B5004048B500402DE9F0413A4D2878DA
:1022200004286CD0E81C0122017859B1012908BFAB
:102230006A7002D0697800295CD002210170407870
:1022400000F0E2FA314CD4F804034FF0000810F427
:10225000002F4FF480764FF0E0271CBFD4F84C01DC
:10226000002808D04FF0030000F0CEFAC7F88062D3
:102270000320FFF79BFAD4F8040310F4802F1CBF4F
:10228000D4F84801002808D04FF0020000F0BCFA52
:10229000C7F880620220FFF789FAD4F8040310F42B
:1022A000003F1CBFD4F84401002808D04FF00100C3
:1022B00000F0AAFAC7F880620120FFF777FAD4F895
:1022C000040310F4803F1ABFD4F840010028BDE891
:1022D000F0814FF0000000F097FAC7F88062042008
:1022E0002870C5F80880C4F80082BDE8F0410020DD
:1022F000FFF75CBA40F266316C2000F003FFBDE8E6
:10230000F0410720FFF752BA200000200080004073
:10231000012213024FF0E0210020C1F8803101F5C5
:10232000C071BFF34F8FBFF36F8FC1F800310C49FD
:102330004A60431EC1F808330A4B1860C1F84001D7
:102340001B1D1860C1F844011B1D1860C1F848012D
:102350001B1D1860C1F84C010A61034948707047A1
:1023600000800040408500402000002001480068B7
:102370007047000004B500402DE9F05F414E04466F
:10238000F71E96F800C0F868BCF1010F04BFA04228
:10239000BDE8F09F4FF040413B4A11603B496FF46C
:1023A0008023C1F808333A4A4FF00005BCF1000F12
:1023B00057D06FF4A023C1F848331560C1F84451D9
:1023C000D1F848214FF0E0294FF00108002A04BF5E
:1023D0004FF40062C9F880224FF48033C1F808330B
:1023E000C1F84833C1F840512A4AD2F800A0A4EB02
:1023F0000A0A2AF07F4BBBF1020F3CD34FF0020ACE
:10240000BBF5800F37D2C1F84045C1F84433BCF169
:10241000000F05D01168411A21F07F410229F9D33C
:10242000C7F808803D70FFF773FF1B480560001D6B
:10243000C0F800A01949042008601949C1F80C80AF
:10244000BA68C1F800228101C9F88012C9F80011E8
:10245000144A41071160FC60707086F80080BDE886
:10246000F09FC1F84833104B1D60C1F84051156012
:10247000C1F84451A4E7C1F8405540F2EF116C2077
:1024800000F040FE2300002008F5014000B00040AD
:1024900044B5004004B5004004850040108500406C
:1024A0000080004004F5014040B500402DE9F041B6
:1024B0002B4CE168814214BF01220022DFF8A4C046
:1024C0009CF80070022F02D0002A38D003E0002AC6
:1024D00008BFBDE8F081627882B3234B4FF08042A1
:1024E0001A60224B9513C3F80853C3F848530026CB
:1024F000C3F840611E4AD2F80080A0EB080828F01B
:102500007F48B8F1020F24D3B8F5800F21D2C3F869
:102510004005C3F844532FB11368CB1A23F07F430F
:10252000022BF9D3134B02214A071A60E060042002
:102530008CF801008CF80010BDE8F08104E040F256
:10254000FD116C2000F0DEFD40F201216C2000F056
:10255000D9FDC3F8406540F20D216C2000F0D2FD9A
:10256000200000202300002008F5014000B00040BA
:1025700004B5004004F501400148C0687047000000
:10258000200000202DE9F04133486FF48024C0F88A
:102590000843DFF8C8C0324A00219CF8003063B11C
:1025A0006FF4A024C0F848431160C0F8441100BF84
:1025B000D0F84801012280B909E0C0F84843294C0D
:1025C0002160C0F840111160C0F84411F0E74FF0ED
:1025D000E0244FF40060C4F88002022B04D040F2E3
:1025E00019216C2000F08EFD1F4E30681F4CC01C5E
:1025F00020F07F40E3681E4D98420BD03768DF1B08
:1026000027F07F47042F05D3B7F5800F02D2FFF7DD
:10261000B3FE1BE03068181A20F07F40022813D365
:10262000B0F5800F10D2134B4FF080401860A260BD
:1026300021706A60EA604000191F086004208CF86D
:1026400001008CF8002001E0A2602170A068C5F8AC
:102650000002BDE8F081000000B00040230000202F
:1026600044B5004040B5004004B5004020000020C3
:102670000080004008F501402DE9F047DFF874C103
:1026800001274FF000089CF800509CF801C0072873
:102690007ED2DFE800F0040404046A6A6A00564C43
:1026A000E668B6F1807F04BF6478002C02D0022D6A
:1026B00005D03CE04FF413716C2000F023FD4FEA8D
:1026C0008C0404F18046ACF104042406A40D04F14A
:1026D000804906F5004609F530490024012D02D055
:1026E000022D11D020E0BCF1040F05D2D6F840A194
:1026F000BAF1000F18D104E0D9F840A1BAF1000FE7
:1027000012D14FF000440FE0BCF1040F05D2D6F80F
:1027100040A1BAF1000F07D104E0D9F840A1BAF105
:10272000000F01D144F0804414F0804FD5D1334CD8
:1027300000F1100C07FA0CFCC4F808C38000204418
:1027400052B10764D0F840658D1B25F07F45AA4241
:1027500098BFB5F5800F43D2C0F84015012B08BFD4
:10276000C4F804C30120BDE8F08735B1844504D125
:1027700040F26F216C2000F0C5FC001FC0B2012B9D
:102780000CBF01240024032806D340F2491100E0C5
:102790002BE06C2000F0B6FCDFF864C000F1100301
:1027A00007FA03F3CCF80833CCF8483380006044D0
:1027B000C0F840814AB1134D2E688D1B25F07F452E
:1027C000AA4298BFB5F5800F0AD2C0F84015002C78
:1027D00018BFCCF80433CCF844330120BDE8F087AF
:1027E000C0F840850020BDE8F0874FF41D716C20D3
:1027F00000F088FC23000020200000200080004022
:1028000000B0004004B50040F8B5012700240728B7
:102810004CD2DFE800F00404040416161600264A21
:1028200000F1100107FA01F1C2F808138100114408
:10283000C1F84045C1F84041204951F820000090BE
:10284000F8BD1F4D011FCEB2297879B16A78824256
:102850000CD11C4A4FF040401060012908BFFFF71F
:1028600057FD2C7018494FF08070C86006F11000B9
:1028700007FA00F11548C0F80813C0F84813B00073
:1028800000F1804000F53040D0F84015104A126841
:10289000891A21F07F41022924BFC0F84045C0F8C1
:1028A00040410C4850F826000090F8BD40F2ED2160
:1028B0006C2000F027FC00000080004040810040B8
:1028C0002300002008F501402000002000B0004057
:1028D00004B5004040B100401E496FF48023C1F8A8
:1028E00008331D481D4A90F800C00020BCF1000FBD
:1028F0000AD06FF4A023C1F848331060C1F8440136
:10290000D1F8481181B909E0C1F84833144B186077
:10291000C1F840011060C1F84401F1E74FF0E02236
:102920004FF40061C2F880120E494FF0FF32C1F837
:1029300008230D4A1060C1F84001121D1060C1F853
:102940004401121D1060C1F84801121D1060C1F849
:102950004C01704700B000402300002044B5004007
:1029600040B500400080004040850040084890F994
:1029700002000028B8BF704700F01F01012202FAD0
:1029800001F14009800000F1E020C0F8001270471A
:102990002000002010B507280DD2DFE800F0040465
:1029A000040406060600064902E0001F0549C0B2FD
:1029B00001EB800010BD4FF426716C2000F0A2FBEB
:1029C0004081004040B1004010B507280DD2DFE83B
:1029D00000F00404040406060600064902E0001F95
:1029E0000549C0B201EB800010BD4FF426716C2088
:1029F00000F088FB4081004040B1004070B51948AC
:102A0000002404210470C01E01708905C160FFF715
:102A10007FFC01254FF0E02CEB02CCF88031BFF3B6
:102A20004F8FBFF36F8FCCF880320F4A556095609F
:102A30000E4801680029FCD1481EC2F80803C2F8FC
:102A400048030B480460C2F84041001D0460C2F80E
:102A50004441001D0460C2F84841CCF800311560C3
:102A600070BD00002300002000B0004004B500400D
:102A700040B500402DE9F041164C607A002827D07F
:102A80004FF480718D05284601F054FD80464FF4C7
:102A90008271284601F04EFD00260746B8F1000F6E
:102AA00009D00120C5F80803207920B12671E0691A
:102AB00008B18047E66137B1C5F804610220C5F866
:102AC000080300F067FA4046BDE8F04100F05AB84C
:102AD000BDE8F0813000002010B501F0D5FD30B91F
:102AE00001F0E9FD18B901F0F2FD002802D0024919
:102AF0000220086010BD0000340C004070B500F0EA
:102B000087F900F09BFA094C4FF0804530B1FFF790
:102B1000E3FF012028610420A07204E00320A072DA
:102B20000120C5F804030020E07170BD30000020D2
:102B300070B5134CA079F0B1012803D0E179401EA3
:102B4000814218DA00F07AFA054600F04BFBA179D1
:102B5000012902D9E179491CE1710DB1616900E0F7
:102B60002169411A022902DA11F1020F07DC0DB1C5
:102B7000606100E02061BDE87040FFF7BFBF70BD3D
:102B8000300000202DE9F04706464FF080454FF415
:102B90008671284601F0CEFC80464FF488712846A5
:102BA00001F0C8FC274C8246277804F1080001F0A8
:102BB00035FD10B14FF4D57116E04FF0010946B163
:102BC000A07A032805D10420A072FFF785FFC5F87D
:102BD00010900026B8F1000F18D0C5F80C61A07A4B
:102BE000042804D04FF4DE716D2000F08BFA01F060
:102BF0004BFD28B901F05FFD10B901F068FD08B187
:102C0000114806600220A07200F0E6F8BAF1000F49
:102C100008D0C5F81061A07A022801D1FFF788FF1B
:102C2000C5F814903FB12670A07A022801D1FFF7B1
:102C300065FF00F0D1F8BDE8F0470248083001F028
:102C400004BD000030000020340C00402DE9F047A6
:102C50005C4C4FF000080646C4F818804378827830
:102C60000078E07263710127A271BD0784F80780C4
:102C7000052824D2DFE800F00F03051F2100A7611B
:102C800009E000F0C5F80121284601F058FC0028B1
:102C9000F9D00220A06101F07EFCB0B100F0E8F9AB
:102CA000217E01F0030188420FD1B07950B102209A
:102CB000C5F804036AE04448ECE74448EAE74FF407
:102CC0004C7149E000F0A8F960E0EF604FF4827ABF
:102CD000C5F80481A069C5F8180501F0C1FC40B928
:102CE00001F0C8FC28B901F0DCFC10B901F0E3FCEC
:102CF00038B14FF080513648D1F84412C1F3423117
:102D0000016001F0ADFC40B901F0B4FC28B901F05C
:102D1000C8FC10B901F0CFFC10B12D48103007608D
:102D2000AF600220C5F80403B07978BBD5F804037E
:102D300010F0020F0ED0DFF89C90D9F80010C943B4
:102D400041F30017D9F8001041F01001C9F8001044
:102D50007F1C07E040F2F1216D2000F0D3F900BFA5
:102D600000F0F6FA5146284601F0E4FB0028F7D0BF
:102D700000F052F92FB9D9F8001021F01001C9F86C
:102D800000100220C5F80803C5F80481A07970B1CD
:102D9000307860B900F052F9064600F023FA6FF07F
:102DA000004216B1C4E9042001E0C4E90402012193
:102DB000284601F0C4FB08B100F03AF984F80A8013
:102DC000BDE8F08730000020010002000100030090
:102DD0003C05004010ED00E010B5EFF3108472B632
:102DE0000A48417829B14178491E4170417829B19A
:102DF00008E040F20D116D2000F084F9807808B9E8
:102E000000F02AF9002C00D162B610BD300000207D
:102E100010B5EFF3108472B606484178491C417032
:102E20004078012801D101F0A1FB002C00D162B64D
:102E300010BD000030000020054810B5C17821B158
:102E400000210171C170FFF7C7FF002010BD000015
:102E50003000002070B50C4CE17861B90125E570B7
:102E6000E061FFF7D5FF00F0E9F830B1E06910B19B
:102E700080470020E061002070BD4FF08040257148
:102E8000C0F80453F7E7000030000020EFF3108093
:102E900072B604498A78521C8A70002800D162B642
:102EA000704700003000002010B5EFF3108472B6B8
:102EB0000A48817829B18178491E8170417829B109
:102EC00008E040F225116D2000F01CF9807808B967
:102ED00000F0C2F8002C00D162B610BD3000002016
:102EE0002DE9F04104006FF015003CD02178042951
:102EF00039D80029617838D0002934D1A178002947
:102F000031D1002001F0E1FA002001F0D1FA4FF0B8
:102F100080484FF0FF31C8F808130026C8F8006158
:102F2000C8F80461C8F80C61C8F81061144F7E70CD
:102F3000A088B88101F011FB012508B1FD707D70FA
:102F40000121404601F0FBFA08B100F071F820467B
:102F5000FFF77CFE7D72002001F0AAFA4FF0E0211D
:102F60003046C1F80051BDE8F0810029FBD020298E
:102F7000F9D8A1782129F6D80129C2D1F3E70000B8
:102F8000300000200248807A002800D001207047DD
:102F900030000020F8B51F4DE87A00280FD1287EB8
:102FA00000F0030001F0E7FA002808D0EFF31081E9
:102FB00072B6FFF7E7FF18B1002900D162B6F8BD7D
:102FC0000126AE7201B962B618204FF08044C4F8F1
:102FD0000803A6614FF42070ADF80000BDF80000B2
:102FE000411EADF80010F9D20027C4F80C71C4F8E6
:102FF00010710848083001F024FB2F70FFF77EFDA8
:103000006661687900F07F00C4F838051820C4F8BC
:103010000403F8BD3000002010B5044C207E00F001
:10302000030001F0A8FA0028F8D010BD30000020FD
:103030000149012008707047800000204FF0804057
:10304000D0F8000118B903480078002800D001200A
:1030500070470000800000204FF080400121416057
:103060000021C0F800110148017070478000002065
:103070000248006800F00300704700001C04004094
:1030800010B531B1012907D04FF4427105A000F00D
:103090000FF8D0F8140401E0D0F8080400F00100A3
:1030A00010BD00006E72665F636C6F636B2E68000C
:1030B000024A526802B11047FEE7000050000020AB
:1030C000064810B50021016001210160084601F0A9
:1030D00079FABDE81040012001F067BAFC1F0040FA
:1030E000074810B501214160891EC0F808130C2063
:1030F00001F068FABDE810400C2001F056BA00005B
:1031000000C00040FEB5104A5568E5B100220346F4
:103110006E460A2403E0B0FBF4F0521CD2B2002841
:10312000F9D1B0540AE000BFB3FBF4F004FB103057
:10313000B3FBF4F3521ED2B23030B054002AF3D1B4
:103140003046A847FEBDFEE75000002070B5174C82
:1031500006460D46607810B14FF0FF3070BD06B9DD
:10316000134E62602570FFF7ABFFFFF7B9FF3046E3
:10317000FFF7B6FE0600F1D1FEF740FFFFF70AFFAA
:1031800001F0F8F8284601F010FA0120002D09DBC3
:1031900005F01F0100FA01F16A09920002F1E02234
:1031A000C2F800116070304670BD00005000002071
:1031B000E6450000014840787047000050000020BC
:1031C000074890F90000002809DB00F01F020121E8
:1031D00091404009800000F1E020C0F800127047E3
:1031E000500000202DE9F04101264FF0E02231038C
:1031F0004FF000084046C2F88011BFF34F8FBFF375
:103200006F8F164CC4F800010C2001F0FAF9144D30
:103210002868C04340F30017286840F01000286079
:10322000C4F8046326607F1C02E000BF00F090F841
:10323000D4F800010028F9D01FB9286820F0100048
:103240002860084805686660C4F80863C4F800810F
:103250000C2001F0D6F92846BDE8F08100C00040FE
:1032600010ED00E008C5004010B5024605200C49ED
:1032700004E000BF01EBC0031B7933B1401EC0B2B4
:10328000F8D24B216920FFF73DFF41F8302001EBD8
:10329000C00100224A718A7101220A7110BD00002A
:1032A000B40D002010B5052801D35A2106E00A49C3
:1032B00001EBC0000179012903D05B216920FFF7F0
:1032C00021FF41798279491CC9B28A4200D04171FB
:1032D000BDE81040FFF774BFB40D002070B50525A0
:1032E0000E4E0F4C16E0217806EBC1000279012A40
:1032F00008D1427983799A4204D04279827156F892
:10330000310080472078401CC0B22070052801D3CE
:10331000002020706D1EEDB2E5D270BDB40D00200E
:103320008100002000B501F09BF940B901F0A2F93D
:1033300028B901F0B6F910B901F0BDF908B1024899
:1033400000BD024800BD00000C05004000E7014040
:1033500010B501F0B0F930B3EFF31080C8B100211F
:1033600072B6124802680368C2F3001243F01003F9
:1033700003604FF0E023D3F80042D3F804321C433B
:1033800000D040BF20BF00BF00BF00BF00BF12B1D0
:1033900005E00121E4E7026822F010020260002942
:1033A00000D062B610BD20BF10BD000010ED00E0DF
:1033B00001490968896808475800002001490968DF
:1033C0000969084758000020014800684068004724
:1033D0005800002001490968096808475800002082
:1033E000AB480000A348000097480000A748000031
:1033F0009F480000094810B58178042908D0102999
:103400000AD0202908D04FF4DF716B20FFF77AFE35
:10341000102181701FF0B2F910BD00005C00002087
:103420000B4810B5017831B1EFF3108472B6817892
:10343000102905D008E040F20B316B20FFF762FE47
:1034400008218170FEF794FC002C00D162B610BDFB
:103450005C00002070B5124C207858B1EFF3108555
:1034600072B6607948B1022809D04FF435716B20EB
:10347000FFF748FE40F2C121F9E7012003E0A178FF
:103480000020042901D0607102E060711FF06EF924
:1034900005B962B6E078BDE87040FFF703BF0000F1
:1034A0005C0000200E4810B5017859B1EFF310818F
:1034B00072B642794AB1012A09D04FF43F716B20AC
:1034C000FFF720FE4FF43B71F9E7022200E00022F3
:1034D000427101B962B6C078BDE81040FFF7E2BEA4
:1034E0005C00002010B5134C207810B140F27E2112
:1034F0001DE0002060700120A0700F484FF4C851FB
:10350000016005210181B72141810C4941600C48CE
:10351000FFF7AAFEE07000210A48FEF701FC2071C7
:10352000202802D00120207010BD40F28D216B2098
:10353000FFF7E8FD5C000020EC0D0020FF1FA10755
:1035400071360000A535000012488178042901D0A9
:10355000002070478079B8B10F48D0F804050E49B3
:10356000091DD1F84015401C081A0002C11700EBD4
:1035700011600012002800DC00200849A0FB0110A7
:10358000420442EAD1307047054801684089081A70
:10359000704700005C00002000B0004040420F0077
:1035A000EC0D002070B52F4ED6F8040500252E4CEA
:1035B000082931D2DFE801F030043A3A211C4B40AF
:1035C0000121022000F0FCF8607858B10420A070BE
:1035D00026480068A060A571607902283ED01FF0DF
:1035E000C5F83BE02020A070BDE87040FEF7C0BBEE
:1035F00040F206216B20FFF785FD607800280BD094
:10360000A078042809D04FF0E0210220C1F8800101
:10361000BFF34F8FBFF36F8F70BD00F071F810B123
:10362000D6F84401B0B910F0D9FE70BD01210220D6
:1036300004E00120A07070BD0121282000F0C0F836
:1036400060780028F5D0BDE8704000F095B800F033
:1036500057F818B1BDE87040FFF7CCBEBDE8704028
:1036600000F056B800B000405C000020EC0D0020D7
:1036700070B5EFF3108472B6204D0020697968713F
:10368000C1B3012906D0022918D084F3108840F272
:103690009F1128E084F31088687810B14FF4A67168
:1036A00021E00021142000F08BF801206870A87838
:1036B000012821D1BDE8704000F05EB8697849B1B9
:1036C0006870A878082815D007DC022812D00428D2
:1036D00007D10BE040F25D1105E0102806D020284C
:1036E00008D040F279116B20FFF70CFD2020A87064
:1036F000FEF73EFB84F3108870BD00005C000020E4
:1037000002488079012800D0002070475C0000202A
:1037100070B50420FDF79AFF154D2968814200D845
:10372000084606460421FDF7CFFE124C012130B1B8
:10373000012818D040F23F116B20FFF7E3FC286806
:10374000B042A06806D1FEF7EDFB2868A1680844E6
:10375000A06070BD3044A060A1716989401ABDE8C5
:103760007040FEF7DFBBA1716889A168081AF6E70F
:10377000EC0D00205C0000200F4810B50021016016
:1037800001228160027001810421817200F1100127
:103790000A6842604968C160084802218170064990
:1037A0000079FEF7E3F8002804D140F203116B2002
:1037B000FFF7A8FC10BD0000DC0D00205C0000201D
:1037C0000B4A10B5927812B1531E1A4201D0DD2176
:1037D00009E021B10240900608D1E22103E08243D2
:1037E000900603D1E6216B20FFF78CFC10BD000092
:1037F0005C0000200B49000027490000154900002B
:10380000214900000F490000094900000749000054
:103810002D4900001B49000001490000F948000043
:10382000FD480000F348000070B5050003D0287D76
:1038300020B16C7D09E04FF49F711CE0104811B17C
:1038400090F8204001E090F821400E4E0120A04069
:10385000C6F8080500231A462146304601F075F8DF
:1038600006EB84010020C1F81009287830B1012846
:1038700004D040F255116620FFF744FC002070BDD3
:10388000F80D002000F001402DE9F05F9B46164640
:10389000050018D0C9B1287DDFF84481DFF84491D4
:1038A000C8B16C7DFF2C12D04F4A1078FF2810D081
:1038B000844204D108EB8000D0F8100988B16FF081
:1038C0001500BDE8F09FBF215EE0C0215CE0C4218F
:1038D0005AE0147005E016B199F8204001E099F81B
:1038E00021404878C978B04201D0404801E03F48C3
:1038F000303800EB81072878D0B1012802D04FF48E
:10390000997141E008EBC4004646D0F8140520B197
:1039100006EB8400C0F8107905E03B46214640469E
:103920006A6801F012F80120A040C6F8040554E0CE
:10393000287C40B3002100F051FA82464FF4A07178
:1039400001EB8A006A683B460244214647464046EE
:1039500000F0FBFF0120A040C7F8040569680AF0E9
:10396000FF00EB6801EB8000A3EB0B02C0F84025E1
:1039700099F81C004C4680B37EB3E07F617F31B183
:103980001A49303904E0FA216620FFF7BBFB1749DA
:1039900001EB8007287C012100F020FA06464FF455
:1039A000A070696800EB86000A1894F822103B4664
:1039B00047464046083400F0C8FFA07E0121814000
:1039C000C7F80415EB686968A3EB0B02F0B2236833
:1039D00001EB8000D21AC0F84025002071E70000FA
:1039E00000F00140F80D00206800002060600040F9
:1039F00070B5104D6868A8B1104C0F49012260786D
:103A000001EBC0035A6001EB80000026C0F800689B
:103A100031462846FFF708FF38B140F2E52166201D
:103A2000FFF770FB4FF0FF3070BDFF20607000208B
:103A30006E6070BD1C0E002000F001406800002088
:103A400070B50C460D490122A1F124050A7000222F
:103A50000A754860103909482B68FFF715FF0028E0
:103A60000BD1002205F1180104486B68FFF70CFF29
:103A7000002802D102484470002070BD1C0E0020B6
:103A80006800002070B51E4C1E4E012594F82010D1
:103A900005FA01F0C6F8080500231A4630461C3422
:103AA00000F053FF2079002106EB8000C0F81019C8
:103AB000617905FA01F0C6F8080500231A46304678
:103AC00000F043FF6079002106EB8000C0F8101978
:103AD00014F81C0978B114F8221F8D40C6F8085557
:103AE00000231A46304600F030FF2078002106EB14
:103AF0008000C0F81019BDE8704000F0DFB9000088
:103B0000F80D002000F0014070B5114C0546114E33
:103B1000207D58B1E80709D02146607DC97D08B1F4
:103B2000002200E00122304600F006FF207E00283F
:103B30000CD0A8070AD5607EE17E08B1002200E023
:103B400001223046BDE8704000F0F6BE70BD0000B6
:103B5000F80D0020006000400D4810B5D0E90112BA
:103B60001143C26800691143014302D04FF0FF3096
:103B700010BD0848017F21B1C17F407F18B10022EC
:103B800002E0002010BD0122034800F0D5FEF8E756
:103B900068000020F80D00200060004070B5184D4E
:103BA000287E48B3174C0026E06828B10121FFF7B2
:103BB0003BFE00281FD1E660206928B10021FFF7F5
:103BC00033FE002817D12661287F88B195F822405E
:103BD0000D4D0120A040C5F8080500231A462146D6
:103BE000284600F0B2FE05EB84010020C1F8100960
:103BF00000F064F9002070BD4FF0FF3070BD000090
:103C0000F80D00206800002000F001402DE9F0418F
:103C1000114D06460C46287ED0B105F118000F4F15
:103C2000804646B10146012230466B68FFF72CFE04
:103C300000280BD1FE6044B10022414620466B684B
:103C4000FFF722FE002801D13C610020BDE8F08191
:103C50004FF0FF30FAE70000F80D00206800002068
:103C600003490A7D0AB1097C00E000210170704718
:103C7000F80D002070B5184D287D48B3174C00266C
:103C8000606828B10121FFF7CFFD00281FD16660D1
:103C9000A06828B10021FFF7C7FD002817D1A66052
:103CA000287F88B195F822400D4D0120A040C5F82D
:103CB000080500231A462146284600F046FE05EB7B
:103CC00084010020C1F8100900F0F8F8002070BD50
:103CD0004FF0FF3070BD0000F80D0020680000209C
:103CE00000F001402DE9F041114D06460C46287DBB
:103CF000D0B105F114000F4F804646B101460122B4
:103D000030462B68FFF7C0FD00280BD17E6044B120
:103D10000022414620462B68FFF7B6FD002801D15E
:103D2000BC600020BDE8F0814FF0FF30FAE70000F2
:103D3000F80D0020680000202DE9F047244D0446CE
:103D40009946287F16460F4600283FD0E87F697FB6
:103D500009B1204901E01F49303901EB8003F9B274
:103D600055F80C0F04EB8101401CC1F84005DFF849
:103D7000688004EB8702A97D404602F5A07200F03E
:103D8000E4FD4FF48070D4F80012B840234601439C
:103D9000C4F80012F1B24A46404600F0D6FDF0B237
:103DA00008EB80000021C0F81019012000FA06F18C
:103DB000C8F804154FF4A07101EB870189B2002205
:103DC0006250A97D8840C8F804050120BDE8F0874D
:103DD000F80D00206060004000F0014010B50022A6
:103DE0005FF0010404FA02F3034201D019B1491E45
:103DF000521C042AF6D34AB1012A09D0022A09D05A
:103E0000032A09D08D216620FFF77CF9002010BD20
:103E1000012010BD022010BD032010BD38B5254C77
:103E2000254D207D90B1607DE0B300200090A27D03
:103E3000E17D0023284600F075F8E07D05EB800168
:103E4000D1F8100540F00300C1F81005207E90B1B4
:103E5000607E40B300200090A27EE17E00232846D1
:103E600000F060F8E07E05EB8001D1F8100540F02D
:103E70000300C1F81005207F002812D0607FB8B180
:103E800000200090A27FE17F0023284600F04AF83E
:103E9000E07F05EB8000D0F8101541F00301C0F879
:103EA000101538BD00E001E00120BFE70120D2E796
:103EB0000120E6E7F80D00200060004070B50B4CD3
:103EC0002178FF2911D00A4D01208840C5F8080546
:103ED00000231A46284600F038FD2078002105EB23
:103EE0008000C0F81019FF20207070BD680000200D
:103EF00000F0014010B501462422084800F0F1FB13
:103F0000074800F061F8002807D10448017D09B98D
:103F1000007E08B1FFF782FF002010BDF80D0020E1
:103F2000643F000030B500EB8100039CD0F8101511
:103F30000B4D2940C0F81015D0F810154FF47C55E2
:103F400005EA022211434FF4403202EA03424FF4E1
:103F5000801303EA04531A431143C0F8101530BD0F
:103F6000FFC0ECFF593B0000E53C00000D3C0000A9
:103F7000753C00009D3B0000093B0000853A0000B5
:103F8000393D0000613C0000413A00003149000029
:103F900035490000F139000001480068006B004716
:103FA0007C000020014A1268526A10477C00002001
:103FB00001490968496908477C00002001480068F8
:103FC000006800477C00002018B103490860002009
:103FD00070474FF0FF3070477C00002001480068B8
:103FE000006900477C000020014A1268926810476F
:103FF0007C00002001480068C06800477C00002069
:10400000014A1268526810477C000020014800787D
:1040100070470000820000200149087070470000CE
:104020008200002070472DE9F0410D0004464FF05A
:1040300002064FF0010708D02878D0B1012807D038
:10404000022814D003283BD116E080F820700EE03F
:104050006868C82803D30421FDF736FA08B10026A2
:1040600007E02046696800F02AF9012601E0FCF724
:104070005BFA3046BDE8F08120780028F7D1686807
:10408000FCF724FAE0B16968087828B1A07805281F
:1040900007D040F2791110E0204600F018F967705F
:1040A000E5E7204600F02BF9E07804F10C0100F080
:1040B0000AF80028DBD140F27B116A20FFF722F8D2
:1040C00084F82070D3E7FDF751BC2DE9F0410D468F
:1040D00004000BD0267900270220092D7BD2DFE8CF
:1040E00005F008102E2E5B647C97860040F2931139
:1040F000E2E0A07804286FD00328FCD04FF4CF7101
:10410000DAE0A078042804D0032802D04FF4D1715B
:10411000D2E00520A07084F82070207880BB0021B8
:10412000204600F0CCF8207B012804D0A069E06193
:104130000021A26841E0E078FDF704FBF7E7A178F1
:10414000042904D0032902D04FF4E071B4E02278AE
:1041500022B12146304600F0EEF8A4E0042900D058
:104160000120A070A268022D0BD006213046904796
:1041700000286BD00078002868D04FF4ED719BE0E8
:1041800031E0052130469047002871D000780028A2
:104190006ED040F2D5118FE0A078052802D040F211
:1041A000E11189E00221A26807E0A078052802D089
:1041B00040F2E71180E0A2680121304690470146B5
:1041C0002046FFF730FF02286DD0F0B3012864D0FD
:1041D00040F2272170E05DE067E0A078052802D07A
:1041E00040F2ED1168E0BDE8F041FCF79DB9A07820
:1041F000052802D04FF4F9715EE0A2680A2130462A
:10420000904701462046FFF70EFF40F2F51153E0BC
:10421000A178052906D062780AB1032902D040F2BC
:10422000F91149E0217829B121463046BDE8F04135
:1042300000F081B894F8201089B184F82070A07043
:10424000A26808213046904701E029E02BE00028D1
:104250000ED0007800280BD040F205212CE06178C8
:1042600059B1E07804F10C01FFF72DFF10B1677030
:10427000BDE8F08140F209211EE0A070A26807218C
:10428000304690470028F3D000780028F0D040F264
:10429000112111E040F216210EE00421A2688CE702
:1042A0000321A26889E7002DE2D100F0EFF8006851
:1042B0000028DDD040F231216A20FEF723FF0246BC
:1042C000037B0069084410615938FDF72BBE0122B9
:1042D00002730022C2750A796AB1002282824A7989
:1042E0005AB1042282758A686A320261C9688161A2
:1042F0000321817070472B22F0E70322F2E710B50B
:10430000044600202073E075087980B10020A08267
:10431000487970B10420A075C8686A302061896846
:10432000E069FDF7DDF9A0610420A07010BD2B202D
:10433000EDE70320EFE770B505460C46C878FDF7BA
:10434000CDFC78B1204600F010F8A268092128467B
:104350009047002808D00078002805D0DB216A208B
:10436000FEF7D0FED721FAE770BD00218170017001
:104370004170704770B5FCF731F90546002406E03E
:104380002046FCF731F9FFF7F0FF641CE4B2AC42C1
:10439000F6D370BD2DE9F0410D46FCF725F9040078
:1043A00007D0A0786FF02206012806D0022810D18D
:1043B00003E06FF00100BDE8F0816FF0150755B123
:1043C0002846FCF783F830B1287830B1A07802286D
:1043D00008D03046EFE73846EDE729462046FFF79C
:1043E00076FF03E029462046FFF789FFE07804F1D5
:1043F0000C01FFF768FE08B10020DCE74FF42B71D9
:104400006A20FEF77FFE10B50446FCF7EDF80100C8
:1044100004D008786FF0220268B902E06FF0010062
:1044200010BD887838B1022807D0012805D00120B6
:104430000870002010BD104610BD2046FFF77BFF1E
:10444000F7E72DE9F0410E460746FCF7C7F80546A9
:1044500000240AE02046FCF7C7F8807818B14FF036
:10446000FF30BDE8F081641CE4B2AC42F2D3082E08
:1044700002D96FF01500F4E717B13146384601E074
:1044800000210846BDE8F041FCF794B80020FEF793
:1044900081BA410A43F609525143C0F3080010FBA8
:1044A00002F000F5807001EB50207047FDF75EB917
:1044B000002809DB00F01F02012191404009800023
:1044C00000F1E020C0F88012704700280DDB00F0FA
:1044D0001F02012191404009800000F1E020C0F856
:1044E0008011BFF34F8FBFF36F8F704770B50246D7
:1044F000002000291DD0A2FB0101400A40EAC15062
:10450000490A401C41F1000140F2A172831841F1B7
:1045100000015B1C41F100040021D3F1FF33A141F4
:1045200003D271216D20FEF7EDFD00F5F460B0FBC4
:10453000F2F070BD4058002800D001207047D0F83C
:104540000C24D0F80C0402F00102C00303D58A4207
:1045500001D1012070470020704710B50121880764
:10456000FEF78EFD002800D0012010BD4FF08040E6
:104570000121016070474FF08041D1F81824D1F833
:10458000181402F00302C90303D5824201D10120AD
:1045900070470020704710B500214FF08040FEF7B3
:1045A0006FFD002800D0012010BD002809DB00F0BD
:1045B0001F02012191404009800000F1E020C0F875
:1045C0008012704700280DDB00F01F02012191408E
:1045D0004009800000F1E020C0F88011BFF34F8F48
:1045E000BFF36F8F704700100200FA000000AC8A22
:1045F00032CD0B6DDD090BD89484B72EF3BF0818AC
:10460000D87B002809DB00F01F02012191404009FE
:10461000800000F1E020C0F880127047EFF31081B5
:1046200072B60278012A01D0012200E000220123A3
:10463000037001B962B60AB1002070476FF0220022
:1046400070470021017008467047EFF3108172B681
:104650000022027001B962B600207047FEF73EBE2C
:104660004FF08050D0F830010F2801D00020704763
:10467000012070474FF08050D0F830010A2801D057
:10468000002070470120704700B5FFF7F3FF20B10D
:104690004FF08050D0F8340108B1002000BD012057
:1046A00000BD4FF08050D0F830010E2801D000201E
:1046B0007047012070474FF08050D0F83001062835
:1046C00003D0401C01D000207047012070474FF0FC
:1046D0008050D0F83001082801D000207047012018
:1046E0007047F0B480EA010C03461CF0030F3CD184
:1046F00013F0030F0BD0002A04BFF0BC704711F871
:1047000001CB03F801CB521E13F0030FF3D1032AA0
:104710004FD9B2F1004F4CD2C2F1000C4FEAEC7409
:104720000CEB947C4FEAAC0CCCF1000CBCF1000F0C
:104730001BDD0D1F1C1F1CF0010F03D055F8046F6B
:1047400044F8046F5FEA6C0607D06F68676055F83D
:10475000087F44F8087F761EF7D101EB8C0103EB4C
:104760008C03CCF1000C02EB8C02002A04BFF0BCDD
:104770007047B2F1004F26D2002ADCBFF0BC704770
:10478000491E5B1E12F0010F03D011F801CF03F890
:1047900001CF521004BFF0BC704791F801C083F8FC
:1047A00001C011F802CF03F802CF521EF5D1F0BCC0
:1047B0007047042AD9D351F804CB121F43F804CB15
:1047C000042AF8D2D1E711F801CB03F801CB521E2D
:1047D000F9D1F0BC704770B4034601F0FF0C10F043
:1047E000030F09D0002A04BF70BC704703F801CB47
:1047F000521E13F0030FF5D1C9B241EA012141EA7B
:104800000145032A39D9B2F1004F36D25142CC17B3
:1048100001EB947189104E42002E11DD191F16F024
:10482000010F18BF41F8045F741004D04D6041F8C7
:10483000085F641EFAD1714203EB860302EB81022A
:10484000002A04BF70BC7047B2F1004F1DD2002A8D
:10485000DCBF70BC7047591E12F0010F18BF01F881
:1048600001CF521004BF70BC704781F801C001F83D
:1048700002CF521EF9D170BC7047042AE0D3121F38
:1048800043F8045B042AFAD2DAE703F801CB521E9C
:10489000FBD170BC704707210170002070470020D9
:1048A0007047002070470020704708B10020704713
:1048B0006FF01500704700B50346FEF745FE9842BD
:1048C00001D9012000BD002000BD08B50B380A4603
:1048D0000F2801D9372106E0C1B26B460420FBF74F
:1048E000DBFD18B140216420FEF70CFC9DF90000AF
:1048F00008BD4FF0FF307047002070470020704720
:104900004FF0FF30704770477047002070474FF0FE
:10491000FF3070474FF0FF30704700210170704743
:104920004FF0FF3070474FF0FF3070470020704766
:10493000002070470020704700EB8100D0F8101570
:1049400062F31451C0F81015704700EBC100C0F8B5
:104950001025C0F814357047014011F0040F00D144
:10496000704710B582B0154C94F885204921144841
:1049700037F0E2F994F8853063B101210022114843
:104980000AF0F0FC444238B949210F4837F0D4F915
:1049900002B010BD0021F1E7204612F075FE03467B
:1049A00040F285120192094A0092224645210848A8
:1049B00037F0C2F904203FF039FF00BF90240020F7
:1049C00088770400D5490000D4770400C477040038
:1049D000A877040070B588B004460E460A464921FF
:1049E0000F4837F0A9F90025ADF81E500095F3B235
:1049F0002A46112120463CF089F9014604950623F8
:104A000003934FF4827302930C23019300930223C8
:104A10000DF11E0220463CF0E3F808B070BD00BF67
:104A2000EC77040008B50E480E4B18603FF0E8FE26
:104A300030B10B480C4B18603FF0E2FE40B108BDAE
:104A4000084B1B681A684521084837F075F9F0E7EC
:104A5000054B1B681A684521054837F06DF9EEE7EC
:104A6000147504003C430020404300200C780400EF
:104A70003478040008B50B4808F0C0FC30B908F0E1
:104A800003FE024640B9FFF7CDFF08BD02464521AF
:104A9000054837F051F9F2E74521044837F04CF961
:104AA000F1E700BF59490000687804008C780400E1
:104AB0002DE9F04182B0284C4FF0030884F80080C3
:104AC000012666700A27A7700B23E3700C22234986
:104AD000601D38F056F90C2525711122204904F18A
:104AE000260038F04EF9112384F825302A461D4956
:104AF00004F1470038F045F984F8465084F85780AF
:104B00000922194904F1590038F03BF9092384F8C6
:104B10005830002584F86950A4F87C5084F88560EA
:104B2000FF2384F88630A4F88850019504F18503AA
:104B300000932B463246062138463BF00FFF019585
:104B4000863400942B463246082138463BF006FF57
:104B500002B0BDE8F08100BF90240020AC780400D2
:104B6000BC780400D0780400E07804002DE9F04F10
:104B700085B044F6206303FB00F36C48A0FB0323DD
:104B80004FEAD3180A2908D00B296AD0492168486E
:104B900037F0D2F805B0BDE8F08F664BD3F800A02F
:104BA000DAF808305B6802AA1021504698470028BE
:104BB0004ED1029CDDF80C904FEA8901A30041EA36
:104BC00094721B1942EB0902D10041EA5371D800DB
:104BD000031B61EB0902110141EA13711801061967
:104BE00041EB09077B0143EAD663720116461F4673
:104BF000514A002330463946FBF7D2FA83464FF03C
:104C0000FF324E4BBB4208BFB24224D3A8FB04453F
:104C100008FB0955484A002320462946FBF7C0FAFD
:104C200003464FF0FF304549A94208BFA04215D3C3
:104C3000DAF808201468002200925A4610215046E3
:104C4000A0470028A6D045213D4837F075F8A1E7D8
:104C50006FF00400F5E76FF08500F2E76FF0850074
:104C6000EFE7384B1F68BB685B6802AA0221384631
:104C70009847002851D1DDF808A0039EB1004FEA03
:104C80008A0341EA9A7213EB0A0346EB0202D1004F
:104C900041EA5371D800B0EB0A0361EB060211013F
:104CA00041EA1371180110EB0A0441EB06056B0190
:104CB00043EAD463620114461D461F4A002320467E
:104CC0002946FBF76DFA81464FF0FF321B4BAB4292
:104CD00008BFA24224D3A8FB0AAB08FB06BB164AB6
:104CE000002350465946FBF75BFA03464FF0FF306E
:104CF0001249594508BF504515D3BA6814680022B7
:104D000000924A4602213846A04700283FF442AFAD
:104D100045210D4837F010F83CE76FF00400F4E748
:104D20006FF08500F1E76FF08500EEE7818080800D
:104D3000287904003C43002040420F003F420F000E
:104D4000EC780400404300200879040010B586B0D8
:104D500002460C46ADF80E004921174836F0ECFF2C
:104D6000002301930DF10E0200920122082120463A
:104D70003BF0F4FDBDF80E308BB98DF81730019380
:104D80000DF1170200920122062120463BF0E6FDBC
:104D900021469DF80E00FFF7E9FE06B010BD012286
:104DA0008DF81720002301930DF1170100910621C2
:104DB00020463BF0D3FDEBE75079040010B584B0FA
:104DC00002460C468DF80F0049210E4836F0B4FF1C
:104DD000002301930DF10F020092012206212046CB
:104DE0003BF0BCFD9DF80F303BB12146064B93F8DC
:104DF0008600FFF7ABFF04B010BD21460020FFF78F
:104E0000B5FEF8E76C79040090240020F8B505465B
:104E1000342140F0C1FF044646780378294A4921ED
:104E2000294836F089FF32464921284836F084FF68
:104E3000002363602A464921254836F07DFF237808
:104E400063B1072B35D13146207AFFF77FFF6368C6
:104E50001C4A49211F4836F06FFFF8BD49211E4802
:104E600036F06AFF227AA57A062A06D0082A13D0DD
:104E700049211A4836F060FFE9E7277B3A46492185
:104E8000174836F059FF002DE1D13146381E18BFC2
:104E90000120FFF793FFDAE7A7893A464921114835
:104EA00036F04AFF002DD2D131463846FFF74EFF8B
:104EB000CDE7284609F076FE0028C8D14FF0FF3331
:104EC0006360C4E7AC7B040088790400987904002F
:104ED000B4790400787A0400D0790400507A040090
:104EE000FC790400247A040030B583B0044608F04D
:104EF000D9FF10B99CB903B030BD4542284612F025
:104F0000C3FB034640F2CA220192074A00922A4696
:104F10004521064836F010FF04203FF087FC20466C
:104F200029F046F8E7E700BFC4770400A87704003B
:104F300010B54921224836F0FFFEFFF79BFD02F035
:104F400033FB90BB49211F4836F0F6FE14F02AFBD4
:104F50001D4BC0F89C3049211C4836F0EDFE1C4822
:104F60001EF020F8FFF7A4FD1A4C0A2194F88600E1
:104F7000FFF7ECFE0B2194F88600FFF7E7FE94F8AC
:104F800086204921144836F0D7FE09F001FE492158
:104F9000124836F0D1FE37F024FB58B90AF0E6FA91
:104FA00049210F4836F0C8FEFEE745210D4836F08E
:104FB000C3FEC7E745210C4836F0BEFEEEE700BF52
:104FC0008C7A0400D87A04000D4E0000F07A0400B8
:104FD00058020020902400200C7B0400447B040035
:104FE000807B0400B47A0400607B040030B40024A9
:104FF00094420FD20B5D43401809074D285680EAB2
:105000000310C3B2C0F30310285680EA0310C0B2E5
:105010000134EDE730BC7047BC7B040070B504463A
:105020000D46436803F003038160022B13D0032B6A
:105030000ED0012B12D00E4E452231460D4836F0CF
:1050400093FA4521304636F06FFE0026304607E0E1
:105050000668002004E00068002601E000263046D3
:105060000023636010B129461CF0F2FE304670BD8B
:10507000CC7B0400F07B040008B50B6801330B60A7
:10508000014B1B68984708BD48040020014B18607D
:10509000704700BF4804002000B583B002460B46AD
:1050A0000021019101A9034800F0CAFF03B05DF897
:1050B00004FB00BF7950000010B584B00446019095
:1050C00002910021039101A9054800F0B9FF039B5B
:1050D000029A934201DA0022E254039804B010BD10
:1050E00037B5030038B504460D46838B002A13DB21
:1050F00003F007035A1F012A1AD9042B4DD02D4C57
:1051000040F21B1221462C4836F02EFA40F21B11B9
:10511000204636F009FE38BDD0E9000185E80300DD
:105120000023236063600121204636F039FAF2E75C
:10513000D0E9000185E80300002222606260062BAE
:105140000FD0052B1CD10021204636F029FA20462D
:1051500036F04DFA0028DED0A38B43F02003A38362
:10516000D9E72B683BB1E28B0132E283002BF9D007
:105170001B68002BF6D10221204636F011FAE6E733
:105180000C4D40F2091229460B4836F0EDF940F279
:105190000911284636F0C8FDD5E7002136F000FA9F
:1051A000204636F024FA0028B5D0A38B43F0200324
:1051B000A383B0E7087C0400F07B04002DE9F04FE6
:1051C00083B004461646838B03F0070703F00808F4
:1051D0000D4631B1B8F1000F11D1002300930193B6
:1051E000A7E0DFF8149340F233124946C14836F085
:1051F000BBF940F23311484636F096FDEAE7012D3F
:1052000013D0022D16D1A38B43F02003A38304F106
:10521000140019F007F9002800F0768186F3118850
:10522000BFF36F8F03B0BDE8F08FA38B43F0100383
:10523000A383ECE7B04D4FF49E722946AD4836F09B
:1052400093F94FF49E71284636F06EFDDBE7204659
:1052500036F0CDF905466EE0D4F818904A46694616
:105260002046FFF73FFF002510E0002F7FD1236885
:10527000002B00F0898023691D68002D00F09180CB
:105280000621204636F08CF94FF00009A38B03F07D
:105290000708B84500F00081A268002A00F0FE80EF
:1052A000012217461AB9009A002A00F0F98043F04B
:1052B0000803A38304F1140A504619F0B3F8002838
:1052C00000F0F28086F31188BFF36F8F002F40F05B
:1052D000F780009B2BB14B4642466946204636F08C
:1052E000C8F915B185492046A8474FF04003EFF3B0
:1052F000118683F31188BFF36F8F504619F082F83F
:10530000002800F0E380504619F09CF8A38B23F0AE
:105310000803A383A38B13F0100F00F0E28023F0A7
:105320001003A3830125A78B07F00707002D3FF487
:105330006EAF022D8BD0002D3FF469AF012D8BD0C5
:10534000032D92D0042D3AD0052D40F09680012FE8
:105350006BD12368002B75D023699D68002D7ED00A
:105360000521204636F01CF94FF000098EE7624D0A
:105370004FF4AB7229465F4836F0F6F84FF4AB7144
:10538000284636F0D1FC72E75B4D40F257122946B1
:10539000584836F0E9F840F25711284636F0C4FC78
:1053A00069E7DFF854814FF4AD724146514836F059
:1053B000DBF84FF4AD71404636F0B6FC60E7022FE3
:1053C0000BD1E38BB3B923695D6805B30421204693
:1053D00036F0E6F84FF0000958E7474D40F25D120D
:1053E0002946444836F0C0F840F25D11284636F0B0
:1053F0009BFCE6E7404D4FF4AF7229463D4836F03E
:10540000B3F84FF4AF71284636F08EFCDBE7DFF8D7
:10541000E88040F261124146364836F0A5F840F285
:105420006111404636F080FCD0E7334D4FF4B27244
:105430002946304836F098F84FF4B271284636F0D5
:1054400073FC86E72C4D40F265122946294836F058
:105450008BF840F26511284636F066FC7CE7DFF8F1
:1054600098804FF4B4724146224836F07DF84FF4EC
:10547000B471404636F058FC72E71F4D40F26B1293
:1054800029461C4836F070F840F26B11284636F079
:105490004BFC0025A946F9E6002202E7002200E7BE
:1054A000002D7FF404AF35E7DFF854B0AC22594645
:1054B000104836F059F8AC21584636F035FC01E773
:1054C0004A464146204636F073F802E70C4D8122E9
:1054D0002946084836F048F88121284636F024FC51
:1054E00011E713F0200F0DD023F02003A383022532
:1054F00019E700BFF07B0400087C04002955000078
:105500002C7C040000250EE7054CAC222146054802
:1055100036F02AF8AC21204636F006FC7EE600BFC5
:105520002C7C0400F07B04002DE9F04104460D467C
:1055300000F114064FF04003EFF3118783F3118855
:10554000BFF36F8F304618F05DFF50B1304618F052
:1055500079FFA5613A4601212046FFF72FFEBDE8FD
:10556000F081DFF81C8081224146044835F0FCFFC1
:105570008121404636F0D8FBE8E700BFF07B04000D
:105580002C7C04002DE9F0470446884636F048F8A4
:10559000061E53DB04F114074FF04003EFF31189AB
:1055A00083F31188BFF36F8F384618F02BFFE8B1F3
:1055B000384618F047FFA58B05F00705E38B4FF63B
:1055C000FF72934250D02E46022D1AD005B3042DFF
:1055D0001ED0062D1CD0052D4DD0012D31D16FF0E0
:1055E00004064FF0000A5346524617E0364D81221A
:1055F0002946364835F0B8FF8121284636F094FB1D
:10560000D6E70133E3834FF0010A00231A4605E091
:10561000B5FA85F35B094FF0000A012242B100227E
:10562000C8F8002062686AB3C2F80080C4F8048039
:105630006BB34A4602212046FFF7C0FD3046BDE865
:10564000F087234E40F2C9123146204835F08CFFD6
:1056500040F2C911304636F067FB6FF004064FF098
:10566000000A53465246D9E76FF00A064FF0000A87
:1056700053465246D2E76FF085064FF0000A534674
:105680005246CBE7C4F80480C4F80080D0E738461F
:1056900018F0C8FE68B189F31188BFF36F8FBAF1B3
:1056A000000FCBD000232A464146204635F0CEFFDE
:1056B000C4E7054FAC223946044835F055FFAC210C
:1056C000384636F031FBE6E72C7C0400F07B040022
:1056D000087C04002DE9F041044600F114054FF068
:1056E0004003EFF3118683F31188BFF36F8F2846D1
:1056F00018F088FE68B1284618F0A4FEA38B03F0CA
:1057000007031F46022B12D0012B0DD06FF0850727
:1057100014E01F4F812239461E4835F025FF8121B4
:10572000384636F001FBE6E76FF0040706E0E38B4E
:105730007BB1E38B013B9BB2E383C3B1284618F0F6
:1057400071FED0B186F31188BFF36F8F3846BDE884
:10575000F081DFF844804FF4F87241460D4835F08F
:1057600003FF4FF4F871404636F0DEFAE1E73246C7
:1057700002212046FFF722FDE8E7054CAC22214636
:10578000044835F0F1FEAC21204636F0CDFAD9E7D9
:105790002C7C0400F07B0400087C04002DE9F84315
:1057A00000286FD00E46814600296ED000F1140803
:1057B0004FF04003EFF3118783F31188BFF36F8F2E
:1057C000404618F01FFE88B1404618F03BFEB9F87D
:1057D0001C5005F007053446D9F800300022002B94
:1057E00038D09C420DD01A461B68F8E7284C81221D
:1057F0002146284835F0B8FE8121204636F094FA3B
:10580000E2E7D2B133681360D9F804309E421ED06B
:1058100000233360062D1FD0042D1DD0052D1BD075
:105820001D4C40F22E2221461A4835F09DFE40F2D2
:105830002E21204636F078FA0EE03368C9F80030A1
:10584000D9F804209642E3D1C9F80430E0E7C9F85A
:105850000420DDE76FF07705404618F0E3FD30B136
:1058600087F31188BFF36F8F2846BDE8F883084C93
:10587000AC222146074835F077FEAC21204636F0B1
:1058800053FAEDE76FF01505EEE76FF01505EBE75E
:105890002C7C0400F07B0400087C040000294DD01F
:1058A000F8B50468204636F013F8054604EBC00648
:1058B000A368B3F5004F1FD3736813F0010F1DD019
:1058C000A268B2F5004F24D3736805EB5303B2F519
:1058D000004F20D354F833209B1A9D421ED1A36859
:1058E000B3F5004F25D3736823F001037360294695
:1058F000204636F04AF8F8BD7388DEE7104F9A224A
:105900003946104835F030FE9A21384636F00CFA08
:10591000D6E77388D9E734F83320DDE7084FA222B1
:105920003946084835F020FEA221384636F0FCF909
:10593000D5E7738823F001037380D8E7704700BF71
:10594000547C0400F07B04002DE9F8430C46154616
:1059500006684B4203EA010831EA030351D0A1EB88
:105960000804B368B3F5004F49D30827B84500D2FF
:105970004746631E234255D1002D7ED0B368B3EB5A
:10598000D50F7CD96119C91BB3F5004F58D3082333
:1059900019440731C908304636F052F80746002846
:1059A0006FD00146304635F0A1FE40442044013816
:1059B00064420440A4EB08042544073525F007059C
:1059C0002146304635F084FF8046AD1BED108742FE
:1059D00038D306EBC807B368B3F5004F3CD37B68F8
:1059E00008EB53039D4239D3B368B3F5004F3FD35F
:1059F0007B6843F001037B602046BDE8F883042701
:105A0000B4E7B368B3F5004F05D30827BC4204D907
:105A10004FF00008ADE70427F8E7294636F05FF8B5
:105A20000446E9E7DFF8649040F20D124946164853
:105A300035F09AFD40F20D11484636F075F99BE7B6
:105A40000423A5E702463946304635F0D7FE3946ED
:105A5000304635F071FFBCE77B88C1E72A464146F6
:105A6000304635F0CBFE2946304635F065FFBBE7C2
:105A70007B8843F001037B80BEE70024BCE7002461
:105A8000BAE70024B8E700BFF07B0400547C0400B0
:105A90002DE9F84F06460D461446B2F5802F33D354
:105AA0000827BC4232D9E21BEC1D24F00704154440
:105AB00025F007052D1B4FEAD509172D34D9A0462F
:105AC0003460C4F808900023E360B9F5004F38D380
:105AD00008230833A9EBD3060136B6FA86F6C6F1D9
